{
  "_format": "hh-sol-artifact-1",
  "contractName": "MyNFTMarketplace",
  "sourceName": "contracts/NFTMarketplaceUpdated.sol",
  "abi": [
    {
      "inputs": [],
      "stateMutability": "nonpayable",
      "type": "constructor"
    },
    {
      "anonymous": false,
      "inputs": [
        {
          "indexed": true,
          "internalType": "address",
          "name": "owner",
          "type": "address"
        },
        {
          "indexed": true,
          "internalType": "address",
          "name": "approved",
          "type": "address"
        },
        {
          "indexed": true,
          "internalType": "uint256",
          "name": "tokenId",
          "type": "uint256"
        }
      ],
      "name": "Approval",
      "type": "event"
    },
    {
      "anonymous": false,
      "inputs": [
        {
          "indexed": true,
          "internalType": "address",
          "name": "owner",
          "type": "address"
        },
        {
          "indexed": true,
          "internalType": "address",
          "name": "operator",
          "type": "address"
        },
        {
          "indexed": false,
          "internalType": "bool",
          "name": "approved",
          "type": "bool"
        }
      ],
      "name": "ApprovalForAll",
      "type": "event"
    },
    {
      "anonymous": false,
      "inputs": [
        {
          "indexed": false,
          "internalType": "uint256",
          "name": "tokenId",
          "type": "uint256"
        },
        {
          "indexed": false,
          "internalType": "uint256",
          "name": "price",
          "type": "uint256"
        },
        {
          "indexed": false,
          "internalType": "address",
          "name": "seller",
          "type": "address"
        }
      ],
      "name": "NFTListed",
      "type": "event"
    },
    {
      "anonymous": false,
      "inputs": [
        {
          "indexed": false,
          "internalType": "uint256",
          "name": "tokenId",
          "type": "uint256"
        },
        {
          "indexed": false,
          "internalType": "uint256",
          "name": "price",
          "type": "uint256"
        },
        {
          "indexed": false,
          "internalType": "address",
          "name": "seller",
          "type": "address"
        },
        {
          "indexed": false,
          "internalType": "address",
          "name": "buyer",
          "type": "address"
        }
      ],
      "name": "NFTSold",
      "type": "event"
    },
    {
      "anonymous": false,
      "inputs": [
        {
          "indexed": true,
          "internalType": "address",
          "name": "previousOwner",
          "type": "address"
        },
        {
          "indexed": true,
          "internalType": "address",
          "name": "newOwner",
          "type": "address"
        }
      ],
      "name": "OwnershipTransferred",
      "type": "event"
    },
    {
      "anonymous": false,
      "inputs": [
        {
          "indexed": true,
          "internalType": "address",
          "name": "from",
          "type": "address"
        },
        {
          "indexed": true,
          "internalType": "address",
          "name": "to",
          "type": "address"
        },
        {
          "indexed": true,
          "internalType": "uint256",
          "name": "tokenId",
          "type": "uint256"
        }
      ],
      "name": "Transfer",
      "type": "event"
    },
    {
      "inputs": [
        {
          "internalType": "address",
          "name": "to",
          "type": "address"
        },
        {
          "internalType": "uint256",
          "name": "tokenId",
          "type": "uint256"
        }
      ],
      "name": "approve",
      "outputs": [],
      "stateMutability": "nonpayable",
      "type": "function"
    },
    {
      "inputs": [
        {
          "internalType": "address",
          "name": "owner",
          "type": "address"
        }
      ],
      "name": "balanceOf",
      "outputs": [
        {
          "internalType": "uint256",
          "name": "",
          "type": "uint256"
        }
      ],
      "stateMutability": "view",
      "type": "function"
    },
    {
      "inputs": [
        {
          "internalType": "uint256",
          "name": "tokenId",
          "type": "uint256"
        }
      ],
      "name": "buyNFT",
      "outputs": [],
      "stateMutability": "payable",
      "type": "function"
    },
    {
      "inputs": [
        {
          "internalType": "uint256",
          "name": "tokenId",
          "type": "uint256"
        }
      ],
      "name": "getApproved",
      "outputs": [
        {
          "internalType": "address",
          "name": "",
          "type": "address"
        }
      ],
      "stateMutability": "view",
      "type": "function"
    },
    {
      "inputs": [],
      "name": "getListedNFTs",
      "outputs": [
        {
          "internalType": "uint256[]",
          "name": "",
          "type": "uint256[]"
        }
      ],
      "stateMutability": "view",
      "type": "function"
    },
    {
      "inputs": [
        {
          "internalType": "uint256",
          "name": "tokenId",
          "type": "uint256"
        }
      ],
      "name": "getNFTListing",
      "outputs": [
        {
          "internalType": "uint256",
          "name": "price",
          "type": "uint256"
        },
        {
          "internalType": "address",
          "name": "seller",
          "type": "address"
        }
      ],
      "stateMutability": "view",
      "type": "function"
    },
    {
      "inputs": [
        {
          "internalType": "address",
          "name": "owner",
          "type": "address"
        },
        {
          "internalType": "address",
          "name": "operator",
          "type": "address"
        }
      ],
      "name": "isApprovedForAll",
      "outputs": [
        {
          "internalType": "bool",
          "name": "",
          "type": "bool"
        }
      ],
      "stateMutability": "view",
      "type": "function"
    },
    {
      "inputs": [
        {
          "internalType": "uint256",
          "name": "tokenId",
          "type": "uint256"
        },
        {
          "internalType": "uint256",
          "name": "price",
          "type": "uint256"
        }
      ],
      "name": "listNFT",
      "outputs": [],
      "stateMutability": "nonpayable",
      "type": "function"
    },
    {
      "inputs": [
        {
          "internalType": "string",
          "name": "_tokenURI",
          "type": "string"
        }
      ],
      "name": "mint",
      "outputs": [
        {
          "internalType": "uint256",
          "name": "",
          "type": "uint256"
        }
      ],
      "stateMutability": "nonpayable",
      "type": "function"
    },
    {
      "inputs": [],
      "name": "name",
      "outputs": [
        {
          "internalType": "string",
          "name": "",
          "type": "string"
        }
      ],
      "stateMutability": "view",
      "type": "function"
    },
    {
      "inputs": [],
      "name": "owner",
      "outputs": [
        {
          "internalType": "address",
          "name": "",
          "type": "address"
        }
      ],
      "stateMutability": "view",
      "type": "function"
    },
    {
      "inputs": [
        {
          "internalType": "uint256",
          "name": "tokenId",
          "type": "uint256"
        }
      ],
      "name": "ownerOf",
      "outputs": [
        {
          "internalType": "address",
          "name": "",
          "type": "address"
        }
      ],
      "stateMutability": "view",
      "type": "function"
    },
    {
      "inputs": [],
      "name": "renounceOwnership",
      "outputs": [],
      "stateMutability": "nonpayable",
      "type": "function"
    },
    {
      "inputs": [
        {
          "internalType": "address",
          "name": "from",
          "type": "address"
        },
        {
          "internalType": "address",
          "name": "to",
          "type": "address"
        },
        {
          "internalType": "uint256",
          "name": "tokenId",
          "type": "uint256"
        }
      ],
      "name": "safeTransferFrom",
      "outputs": [],
      "stateMutability": "nonpayable",
      "type": "function"
    },
    {
      "inputs": [
        {
          "internalType": "address",
          "name": "from",
          "type": "address"
        },
        {
          "internalType": "address",
          "name": "to",
          "type": "address"
        },
        {
          "internalType": "uint256",
          "name": "tokenId",
          "type": "uint256"
        },
        {
          "internalType": "bytes",
          "name": "data",
          "type": "bytes"
        }
      ],
      "name": "safeTransferFrom",
      "outputs": [],
      "stateMutability": "nonpayable",
      "type": "function"
    },
    {
      "inputs": [
        {
          "internalType": "address",
          "name": "operator",
          "type": "address"
        },
        {
          "internalType": "bool",
          "name": "approved",
          "type": "bool"
        }
      ],
      "name": "setApprovalForAll",
      "outputs": [],
      "stateMutability": "nonpayable",
      "type": "function"
    },
    {
      "inputs": [
        {
          "internalType": "bytes4",
          "name": "interfaceId",
          "type": "bytes4"
        }
      ],
      "name": "supportsInterface",
      "outputs": [
        {
          "internalType": "bool",
          "name": "",
          "type": "bool"
        }
      ],
      "stateMutability": "view",
      "type": "function"
    },
    {
      "inputs": [],
      "name": "symbol",
      "outputs": [
        {
          "internalType": "string",
          "name": "",
          "type": "string"
        }
      ],
      "stateMutability": "view",
      "type": "function"
    },
    {
      "inputs": [
        {
          "internalType": "uint256",
          "name": "tokenId",
          "type": "uint256"
        }
      ],
      "name": "tokenURI",
      "outputs": [
        {
          "internalType": "string",
          "name": "",
          "type": "string"
        }
      ],
      "stateMutability": "view",
      "type": "function"
    },
    {
      "inputs": [
        {
          "internalType": "address",
          "name": "from",
          "type": "address"
        },
        {
          "internalType": "address",
          "name": "to",
          "type": "address"
        },
        {
          "internalType": "uint256",
          "name": "tokenId",
          "type": "uint256"
        }
      ],
      "name": "transferFrom",
      "outputs": [],
      "stateMutability": "nonpayable",
      "type": "function"
    },
    {
      "inputs": [
        {
          "internalType": "address",
          "name": "newOwner",
          "type": "address"
        }
      ],
      "name": "transferOwnership",
      "outputs": [],
      "stateMutability": "nonpayable",
      "type": "function"
    }
  ],
  "bytecode": "0x608060405234801561001057600080fd5b506040518060400160405280600581526020017f4d794e46540000000000000000000000000000000000000000000000000000008152506040518060400160405280600481526020017f4d4e465400000000000000000000000000000000000000000000000000000000815250816000908161008c91906103de565b50806001908161009c91906103de565b5050506100bb6100b06100c060201b60201c565b6100c860201b60201c565b6104b0565b600033905090565b6000600660009054906101000a900473ffffffffffffffffffffffffffffffffffffffff16905081600660006101000a81548173ffffffffffffffffffffffffffffffffffffffff021916908373ffffffffffffffffffffffffffffffffffffffff1602179055508173ffffffffffffffffffffffffffffffffffffffff168173ffffffffffffffffffffffffffffffffffffffff167f8be0079c531659141344cd1fd0a4f28419497f9722a3daafe3b4186f6b6457e060405160405180910390a35050565b600081519050919050565b7f4e487b7100000000000000000000000000000000000000000000000000000000600052604160045260246000fd5b7f4e487b7100000000000000000000000000000000000000000000000000000000600052602260045260246000fd5b6000600282049050600182168061020f57607f821691505b602082108103610222576102216101c8565b5b50919050565b60008190508160005260206000209050919050565b60006020601f8301049050919050565b600082821b905092915050565b60006008830261028a7fffffffffffffffffffffffffffffffffffffffffffffffffffffffffffffffff8261024d565b610294868361024d565b95508019841693508086168417925050509392505050565b6000819050919050565b6000819050919050565b60006102db6102d66102d1846102ac565b6102b6565b6102ac565b9050919050565b6000819050919050565b6102f5836102c0565b610309610301826102e2565b84845461025a565b825550505050565b600090565b61031e610311565b6103298184846102ec565b505050565b5b8181101561034d57610342600082610316565b60018101905061032f565b5050565b601f8211156103925761036381610228565b61036c8461023d565b8101602085101561037b578190505b61038f6103878561023d565b83018261032e565b50505b505050565b600082821c905092915050565b60006103b560001984600802610397565b1980831691505092915050565b60006103ce83836103a4565b9150826002028217905092915050565b6103e78261018e565b67ffffffffffffffff811115610400576103ff610199565b5b61040a82546101f7565b610415828285610351565b600060209050601f8311600181146104485760008415610436578287015190505b61044085826103c2565b8655506104a8565b601f19841661045686610228565b60005b8281101561047e57848901518255600182019150602085019450602081019050610459565b8683101561049b5784890151610497601f8916826103a4565b8355505b6001600288020188555050505b505050505050565b6137a6806104bf6000396000f3fe60806040526004361061012a5760003560e01c806370a08231116100ab578063a22cb4651161006f578063a22cb465146103e4578063b88d4fde1461040d578063c87b56dd14610436578063d85d3d2714610473578063e985e9c5146104b0578063f2fde38b146104ed5761012a565b806370a0823114610311578063715018a61461034e5780638da5cb5b1461036557806394383f141461039057806395d89b41146103b95761012a565b80630ea59c4b116100f25780630ea59c4b1461022857806323b872dd1461026657806342842e0e1461028f57806351ed8288146102b85780636352211e146102d45761012a565b8063012386f01461012f57806301ffc9a71461015a57806306fdde0314610197578063081812fc146101c2578063095ea7b3146101ff575b600080fd5b34801561013b57600080fd5b50610144610516565b6040516101519190612148565b60405180910390f35b34801561016657600080fd5b50610181600480360381019061017c91906121d6565b610642565b60405161018e919061221e565b60405180910390f35b3480156101a357600080fd5b506101ac610724565b6040516101b991906122c9565b60405180910390f35b3480156101ce57600080fd5b506101e960048036038101906101e49190612317565b6107b6565b6040516101f69190612385565b60405180910390f35b34801561020b57600080fd5b50610226600480360381019061022191906123cc565b6107fc565b005b34801561023457600080fd5b5061024f600480360381019061024a9190612317565b610913565b60405161025d92919061241b565b60405180910390f35b34801561027257600080fd5b5061028d60048036038101906102889190612444565b6109ac565b005b34801561029b57600080fd5b506102b660048036038101906102b19190612444565b610a0c565b005b6102d260048036038101906102cd9190612317565b610a2c565b005b3480156102e057600080fd5b506102fb60048036038101906102f69190612317565b610c83565b6040516103089190612385565b60405180910390f35b34801561031d57600080fd5b5061033860048036038101906103339190612497565b610d09565b60405161034591906124c4565b60405180910390f35b34801561035a57600080fd5b50610363610dc0565b005b34801561037157600080fd5b5061037a610dd4565b6040516103879190612385565b60405180910390f35b34801561039c57600080fd5b506103b760048036038101906103b291906124df565b610dfe565b005b3480156103c557600080fd5b506103ce610fd0565b6040516103db91906122c9565b60405180910390f35b3480156103f057600080fd5b5061040b6004803603810190610406919061254b565b611062565b005b34801561041957600080fd5b50610434600480360381019061042f91906126c0565b611078565b005b34801561044257600080fd5b5061045d60048036038101906104589190612317565b6110da565b60405161046a91906122c9565b60405180910390f35b34801561047f57600080fd5b5061049a600480360381019061049591906127e4565b6111c7565b6040516104a791906124c4565b60405180910390f35b3480156104bc57600080fd5b506104d760048036038101906104d2919061282d565b6111fe565b6040516104e4919061221e565b60405180910390f35b3480156104f957600080fd5b50610514600480360381019061050f9190612497565b611292565b005b6060600080600190505b61052a6007611315565b81116105715760006009600083815260200190815260200160002060000154111561055e57818061055a9061289c565b9250505b80806105699061289c565b915050610520565b5060008167ffffffffffffffff81111561058e5761058d612595565b5b6040519080825280602002602001820160405280156105bc5781602001602082028036833780820191505090505b509050600080600190505b6105d16007611315565b811161063857600060096000838152602001908152602001600020600001541115610625578083838151811061060a576106096128e4565b5b60200260200101818152505081806106219061289c565b9250505b80806106309061289c565b9150506105c7565b5081935050505090565b60007f80ac58cd000000000000000000000000000000000000000000000000000000007bffffffffffffffffffffffffffffffffffffffffffffffffffffffff1916827bffffffffffffffffffffffffffffffffffffffffffffffffffffffff1916148061070d57507f5b5e139f000000000000000000000000000000000000000000000000000000007bffffffffffffffffffffffffffffffffffffffffffffffffffffffff1916827bffffffffffffffffffffffffffffffffffffffffffffffffffffffff1916145b8061071d575061071c82611323565b5b9050919050565b60606000805461073390612942565b80601f016020809104026020016040519081016040528092919081815260200182805461075f90612942565b80156107ac5780601f10610781576101008083540402835291602001916107ac565b820191906000526020600020905b81548152906001019060200180831161078f57829003601f168201915b5050505050905090565b60006107c18261138d565b6004600083815260200190815260200160002060009054906101000a900473ffffffffffffffffffffffffffffffffffffffff169050919050565b600061080782610c83565b90508073ffffffffffffffffffffffffffffffffffffffff168373ffffffffffffffffffffffffffffffffffffffff1603610877576040517f08c379a000000000000000000000000000000000000000000000000000000000815260040161086e906129e5565b60405180910390fd5b8073ffffffffffffffffffffffffffffffffffffffff166108966113d8565b73ffffffffffffffffffffffffffffffffffffffff1614806108c557506108c4816108bf6113d8565b6111fe565b5b610904576040517f08c379a00000000000000000000000000000000000000000000000000000000081526004016108fb90612a77565b60405180910390fd5b61090e83836113e0565b505050565b600080600060096000858152602001908152602001600020604051806040016040529081600082015481526020016001820160009054906101000a900473ffffffffffffffffffffffffffffffffffffffff1673ffffffffffffffffffffffffffffffffffffffff1673ffffffffffffffffffffffffffffffffffffffff16815250509050806000015181602001519250925050915091565b6109bd6109b76113d8565b82611499565b6109fc576040517f08c379a00000000000000000000000000000000000000000000000000000000081526004016109f390612b09565b60405180910390fd5b610a0783838361152e565b505050565b610a2783838360405180602001604052806000815250611078565b505050565b600060096000838152602001908152602001600020604051806040016040529081600082015481526020016001820160009054906101000a900473ffffffffffffffffffffffffffffffffffffffff1673ffffffffffffffffffffffffffffffffffffffff1673ffffffffffffffffffffffffffffffffffffffff168152505090506000816000015111610af5576040517f08c379a0000000000000000000000000000000000000000000000000000000008152600401610aec90612b75565b60405180910390fd5b8060000151341015610b3c576040517f08c379a0000000000000000000000000000000000000000000000000000000008152600401610b3390612be1565b60405180910390fd5b600081602001519050600082600001519050600960008581526020019081526020016000206000808201600090556001820160006101000a81549073ffffffffffffffffffffffffffffffffffffffff02191690555050610b9e82338661152e565b8173ffffffffffffffffffffffffffffffffffffffff166108fc829081150290604051600060405180830381858888f19350505050158015610be4573d6000803e3d6000fd5b507f2820044bbebd591ee7d08b7d81dd01945a1a32706da693a946e532d6d988425884828433604051610c1a9493929190612c01565b60405180910390a180341115610c7d573373ffffffffffffffffffffffffffffffffffffffff166108fc8234610c509190612c46565b9081150290604051600060405180830381858888f19350505050158015610c7b573d6000803e3d6000fd5b505b50505050565b600080610c8f83611827565b9050600073ffffffffffffffffffffffffffffffffffffffff168173ffffffffffffffffffffffffffffffffffffffff1603610d00576040517f08c379a0000000000000000000000000000000000000000000000000000000008152600401610cf790612cc6565b60405180910390fd5b80915050919050565b60008073ffffffffffffffffffffffffffffffffffffffff168273ffffffffffffffffffffffffffffffffffffffff1603610d79576040517f08c379a0000000000000000000000000000000000000000000000000000000008152600401610d7090612d58565b60405180910390fd5b600360008373ffffffffffffffffffffffffffffffffffffffff1673ffffffffffffffffffffffffffffffffffffffff168152602001908152602001600020549050919050565b610dc8611864565b610dd260006118e2565b565b6000600660009054906101000a900473ffffffffffffffffffffffffffffffffffffffff16905090565b610e07826119a8565b610e46576040517f08c379a0000000000000000000000000000000000000000000000000000000008152600401610e3d90612dc4565b60405180910390fd5b3373ffffffffffffffffffffffffffffffffffffffff16610e6683610c83565b73ffffffffffffffffffffffffffffffffffffffff1614610ebc576040517f08c379a0000000000000000000000000000000000000000000000000000000008152600401610eb390612e30565b60405180910390fd5b60008111610eff576040517f08c379a0000000000000000000000000000000000000000000000000000000008152600401610ef690612e9c565b60405180910390fd5b60405180604001604052808281526020013373ffffffffffffffffffffffffffffffffffffffff16815250600960008481526020019081526020016000206000820151816000015560208201518160010160006101000a81548173ffffffffffffffffffffffffffffffffffffffff021916908373ffffffffffffffffffffffffffffffffffffffff1602179055509050507fd2ab19646d6f9fdd37206f962b4ebaab8a4a23ad87f7695e7e1736803cb8bf74828233604051610fc493929190612ebc565b60405180910390a15050565b606060018054610fdf90612942565b80601f016020809104026020016040519081016040528092919081815260200182805461100b90612942565b80156110585780601f1061102d57610100808354040283529160200191611058565b820191906000526020600020905b81548152906001019060200180831161103b57829003601f168201915b5050505050905090565b61107461106d6113d8565b83836119e9565b5050565b6110896110836113d8565b83611499565b6110c8576040517f08c379a00000000000000000000000000000000000000000000000000000000081526004016110bf90612b09565b60405180910390fd5b6110d484848484611b55565b50505050565b60606110e5826119a8565b611124576040517f08c379a000000000000000000000000000000000000000000000000000000000815260040161111b90612f65565b60405180910390fd5b60086000838152602001908152602001600020805461114290612942565b80601f016020809104026020016040519081016040528092919081815260200182805461116e90612942565b80156111bb5780601f10611190576101008083540402835291602001916111bb565b820191906000526020600020905b81548152906001019060200180831161119e57829003601f168201915b50505050509050919050565b60006111d36007611bb1565b60006111df6007611315565b90506111eb3382611bc7565b6111f58184611be5565b80915050919050565b6000600560008473ffffffffffffffffffffffffffffffffffffffff1673ffffffffffffffffffffffffffffffffffffffff16815260200190815260200160002060008373ffffffffffffffffffffffffffffffffffffffff1673ffffffffffffffffffffffffffffffffffffffff16815260200190815260200160002060009054906101000a900460ff16905092915050565b61129a611864565b600073ffffffffffffffffffffffffffffffffffffffff168173ffffffffffffffffffffffffffffffffffffffff1603611309576040517f08c379a000000000000000000000000000000000000000000000000000000000815260040161130090612ff7565b60405180910390fd5b611312816118e2565b50565b600081600001549050919050565b60007f01ffc9a7000000000000000000000000000000000000000000000000000000007bffffffffffffffffffffffffffffffffffffffffffffffffffffffff1916827bffffffffffffffffffffffffffffffffffffffffffffffffffffffff1916149050919050565b611396816119a8565b6113d5576040517f08c379a00000000000000000000000000000000000000000000000000000000081526004016113cc90612cc6565b60405180910390fd5b50565b600033905090565b816004600083815260200190815260200160002060006101000a81548173ffffffffffffffffffffffffffffffffffffffff021916908373ffffffffffffffffffffffffffffffffffffffff160217905550808273ffffffffffffffffffffffffffffffffffffffff1661145383610c83565b73ffffffffffffffffffffffffffffffffffffffff167f8c5be1e5ebec7d5bd14f71427d1e84f3dd0314c0f7b2291e5b200ac8c7c3b92560405160405180910390a45050565b6000806114a583610c83565b90508073ffffffffffffffffffffffffffffffffffffffff168473ffffffffffffffffffffffffffffffffffffffff1614806114e757506114e681856111fe565b5b8061152557508373ffffffffffffffffffffffffffffffffffffffff1661150d846107b6565b73ffffffffffffffffffffffffffffffffffffffff16145b91505092915050565b8273ffffffffffffffffffffffffffffffffffffffff1661154e82610c83565b73ffffffffffffffffffffffffffffffffffffffff16146115a4576040517f08c379a000000000000000000000000000000000000000000000000000000000815260040161159b90613089565b60405180910390fd5b600073ffffffffffffffffffffffffffffffffffffffff168273ffffffffffffffffffffffffffffffffffffffff1603611613576040517f08c379a000000000000000000000000000000000000000000000000000000000815260040161160a9061311b565b60405180910390fd5b6116208383836001611c52565b8273ffffffffffffffffffffffffffffffffffffffff1661164082610c83565b73ffffffffffffffffffffffffffffffffffffffff1614611696576040517f08c379a000000000000000000000000000000000000000000000000000000000815260040161168d90613089565b60405180910390fd5b6004600082815260200190815260200160002060006101000a81549073ffffffffffffffffffffffffffffffffffffffff02191690556001600360008573ffffffffffffffffffffffffffffffffffffffff1673ffffffffffffffffffffffffffffffffffffffff168152602001908152602001600020600082825403925050819055506001600360008473ffffffffffffffffffffffffffffffffffffffff1673ffffffffffffffffffffffffffffffffffffffff16815260200190815260200160002060008282540192505081905550816002600083815260200190815260200160002060006101000a81548173ffffffffffffffffffffffffffffffffffffffff021916908373ffffffffffffffffffffffffffffffffffffffff160217905550808273ffffffffffffffffffffffffffffffffffffffff168473ffffffffffffffffffffffffffffffffffffffff167fddf252ad1be2c89b69c2b068fc378daa952ba7f163c4a11628f55a4df523b3ef60405160405180910390a46118228383836001611c58565b505050565b60006002600083815260200190815260200160002060009054906101000a900473ffffffffffffffffffffffffffffffffffffffff169050919050565b61186c6113d8565b73ffffffffffffffffffffffffffffffffffffffff1661188a610dd4565b73ffffffffffffffffffffffffffffffffffffffff16146118e0576040517f08c379a00000000000000000000000000000000000000000000000000000000081526004016118d790613187565b60405180910390fd5b565b6000600660009054906101000a900473ffffffffffffffffffffffffffffffffffffffff16905081600660006101000a81548173ffffffffffffffffffffffffffffffffffffffff021916908373ffffffffffffffffffffffffffffffffffffffff1602179055508173ffffffffffffffffffffffffffffffffffffffff168173ffffffffffffffffffffffffffffffffffffffff167f8be0079c531659141344cd1fd0a4f28419497f9722a3daafe3b4186f6b6457e060405160405180910390a35050565b60008073ffffffffffffffffffffffffffffffffffffffff166119ca83611827565b73ffffffffffffffffffffffffffffffffffffffff1614159050919050565b8173ffffffffffffffffffffffffffffffffffffffff168373ffffffffffffffffffffffffffffffffffffffff1603611a57576040517f08c379a0000000000000000000000000000000000000000000000000000000008152600401611a4e906131f3565b60405180910390fd5b80600560008573ffffffffffffffffffffffffffffffffffffffff1673ffffffffffffffffffffffffffffffffffffffff16815260200190815260200160002060008473ffffffffffffffffffffffffffffffffffffffff1673ffffffffffffffffffffffffffffffffffffffff16815260200190815260200160002060006101000a81548160ff0219169083151502179055508173ffffffffffffffffffffffffffffffffffffffff168373ffffffffffffffffffffffffffffffffffffffff167f17307eab39ab6107e8899845ad3d59bd9653f200f220920489ca2b5937696c3183604051611b48919061221e565b60405180910390a3505050565b611b6084848461152e565b611b6c84848484611c5e565b611bab576040517f08c379a0000000000000000000000000000000000000000000000000000000008152600401611ba290613285565b60405180910390fd5b50505050565b6001816000016000828254019250508190555050565b611be1828260405180602001604052806000815250611de5565b5050565b611bee826119a8565b611c2d576040517f08c379a0000000000000000000000000000000000000000000000000000000008152600401611c2490613317565b60405180910390fd5b80600860008481526020019081526020016000209081611c4d91906134e3565b505050565b50505050565b50505050565b6000611c7f8473ffffffffffffffffffffffffffffffffffffffff16611e40565b15611dd8578373ffffffffffffffffffffffffffffffffffffffff1663150b7a02611ca86113d8565b8786866040518563ffffffff1660e01b8152600401611cca949392919061360a565b6020604051808303816000875af1925050508015611d0657506040513d601f19601f82011682018060405250810190611d03919061366b565b60015b611d88573d8060008114611d36576040519150601f19603f3d011682016040523d82523d6000602084013e611d3b565b606091505b506000815103611d80576040517f08c379a0000000000000000000000000000000000000000000000000000000008152600401611d7790613285565b60405180910390fd5b805181602001fd5b63150b7a0260e01b7bffffffffffffffffffffffffffffffffffffffffffffffffffffffff1916817bffffffffffffffffffffffffffffffffffffffffffffffffffffffff191614915050611ddd565b600190505b949350505050565b611def8383611e63565b611dfc6000848484611c5e565b611e3b576040517f08c379a0000000000000000000000000000000000000000000000000000000008152600401611e3290613285565b60405180910390fd5b505050565b6000808273ffffffffffffffffffffffffffffffffffffffff163b119050919050565b600073ffffffffffffffffffffffffffffffffffffffff168273ffffffffffffffffffffffffffffffffffffffff1603611ed2576040517f08c379a0000000000000000000000000000000000000000000000000000000008152600401611ec9906136e4565b60405180910390fd5b611edb816119a8565b15611f1b576040517f08c379a0000000000000000000000000000000000000000000000000000000008152600401611f1290613750565b60405180910390fd5b611f29600083836001611c52565b611f32816119a8565b15611f72576040517f08c379a0000000000000000000000000000000000000000000000000000000008152600401611f6990613750565b60405180910390fd5b6001600360008473ffffffffffffffffffffffffffffffffffffffff1673ffffffffffffffffffffffffffffffffffffffff16815260200190815260200160002060008282540192505081905550816002600083815260200190815260200160002060006101000a81548173ffffffffffffffffffffffffffffffffffffffff021916908373ffffffffffffffffffffffffffffffffffffffff160217905550808273ffffffffffffffffffffffffffffffffffffffff16600073ffffffffffffffffffffffffffffffffffffffff167fddf252ad1be2c89b69c2b068fc378daa952ba7f163c4a11628f55a4df523b3ef60405160405180910390a461207c600083836001611c58565b5050565b600081519050919050565b600082825260208201905092915050565b6000819050602082019050919050565b6000819050919050565b6120bf816120ac565b82525050565b60006120d183836120b6565b60208301905092915050565b6000602082019050919050565b60006120f582612080565b6120ff818561208b565b935061210a8361209c565b8060005b8381101561213b57815161212288826120c5565b975061212d836120dd565b92505060018101905061210e565b5085935050505092915050565b6000602082019050818103600083015261216281846120ea565b905092915050565b6000604051905090565b600080fd5b600080fd5b60007fffffffff0000000000000000000000000000000000000000000000000000000082169050919050565b6121b38161217e565b81146121be57600080fd5b50565b6000813590506121d0816121aa565b92915050565b6000602082840312156121ec576121eb612174565b5b60006121fa848285016121c1565b91505092915050565b60008115159050919050565b61221881612203565b82525050565b6000602082019050612233600083018461220f565b92915050565b600081519050919050565b600082825260208201905092915050565b60005b83811015612273578082015181840152602081019050612258565b60008484015250505050565b6000601f19601f8301169050919050565b600061229b82612239565b6122a58185612244565b93506122b5818560208601612255565b6122be8161227f565b840191505092915050565b600060208201905081810360008301526122e38184612290565b905092915050565b6122f4816120ac565b81146122ff57600080fd5b50565b600081359050612311816122eb565b92915050565b60006020828403121561232d5761232c612174565b5b600061233b84828501612302565b91505092915050565b600073ffffffffffffffffffffffffffffffffffffffff82169050919050565b600061236f82612344565b9050919050565b61237f81612364565b82525050565b600060208201905061239a6000830184612376565b92915050565b6123a981612364565b81146123b457600080fd5b50565b6000813590506123c6816123a0565b92915050565b600080604083850312156123e3576123e2612174565b5b60006123f1858286016123b7565b925050602061240285828601612302565b9150509250929050565b612415816120ac565b82525050565b6000604082019050612430600083018561240c565b61243d6020830184612376565b9392505050565b60008060006060848603121561245d5761245c612174565b5b600061246b868287016123b7565b935050602061247c868287016123b7565b925050604061248d86828701612302565b9150509250925092565b6000602082840312156124ad576124ac612174565b5b60006124bb848285016123b7565b91505092915050565b60006020820190506124d9600083018461240c565b92915050565b600080604083850312156124f6576124f5612174565b5b600061250485828601612302565b925050602061251585828601612302565b9150509250929050565b61252881612203565b811461253357600080fd5b50565b6000813590506125458161251f565b92915050565b6000806040838503121561256257612561612174565b5b6000612570858286016123b7565b925050602061258185828601612536565b9150509250929050565b600080fd5b600080fd5b7f4e487b7100000000000000000000000000000000000000000000000000000000600052604160045260246000fd5b6125cd8261227f565b810181811067ffffffffffffffff821117156125ec576125eb612595565b5b80604052505050565b60006125ff61216a565b905061260b82826125c4565b919050565b600067ffffffffffffffff82111561262b5761262a612595565b5b6126348261227f565b9050602081019050919050565b82818337600083830152505050565b600061266361265e84612610565b6125f5565b90508281526020810184848401111561267f5761267e612590565b5b61268a848285612641565b509392505050565b600082601f8301126126a7576126a661258b565b5b81356126b7848260208601612650565b91505092915050565b600080600080608085870312156126da576126d9612174565b5b60006126e8878288016123b7565b94505060206126f9878288016123b7565b935050604061270a87828801612302565b925050606085013567ffffffffffffffff81111561272b5761272a612179565b5b61273787828801612692565b91505092959194509250565b600067ffffffffffffffff82111561275e5761275d612595565b5b6127678261227f565b9050602081019050919050565b600061278761278284612743565b6125f5565b9050828152602081018484840111156127a3576127a2612590565b5b6127ae848285612641565b509392505050565b600082601f8301126127cb576127ca61258b565b5b81356127db848260208601612774565b91505092915050565b6000602082840312156127fa576127f9612174565b5b600082013567ffffffffffffffff81111561281857612817612179565b5b612824848285016127b6565b91505092915050565b6000806040838503121561284457612843612174565b5b6000612852858286016123b7565b9250506020612863858286016123b7565b9150509250929050565b7f4e487b7100000000000000000000000000000000000000000000000000000000600052601160045260246000fd5b60006128a7826120ac565b91507fffffffffffffffffffffffffffffffffffffffffffffffffffffffffffffffff82036128d9576128d861286d565b5b600182019050919050565b7f4e487b7100000000000000000000000000000000000000000000000000000000600052603260045260246000fd5b7f4e487b7100000000000000000000000000000000000000000000000000000000600052602260045260246000fd5b6000600282049050600182168061295a57607f821691505b60208210810361296d5761296c612913565b5b50919050565b7f4552433732313a20617070726f76616c20746f2063757272656e74206f776e6560008201527f7200000000000000000000000000000000000000000000000000000000000000602082015250565b60006129cf602183612244565b91506129da82612973565b604082019050919050565b600060208201905081810360008301526129fe816129c2565b9050919050565b7f4552433732313a20617070726f76652063616c6c6572206973206e6f7420746f60008201527f6b656e206f776e6572206f7220617070726f76656420666f7220616c6c000000602082015250565b6000612a61603d83612244565b9150612a6c82612a05565b604082019050919050565b60006020820190508181036000830152612a9081612a54565b9050919050565b7f4552433732313a2063616c6c6572206973206e6f7420746f6b656e206f776e6560008201527f72206f7220617070726f76656400000000000000000000000000000000000000602082015250565b6000612af3602d83612244565b9150612afe82612a97565b604082019050919050565b60006020820190508181036000830152612b2281612ae6565b9050919050565b7f4e4654206e6f7420666f722073616c6500000000000000000000000000000000600082015250565b6000612b5f601083612244565b9150612b6a82612b29565b602082019050919050565b60006020820190508181036000830152612b8e81612b52565b9050919050565b7f496e73756666696369656e74207061796d656e74000000000000000000000000600082015250565b6000612bcb601483612244565b9150612bd682612b95565b602082019050919050565b60006020820190508181036000830152612bfa81612bbe565b9050919050565b6000608082019050612c16600083018761240c565b612c23602083018661240c565b612c306040830185612376565b612c3d6060830184612376565b95945050505050565b6000612c51826120ac565b9150612c5c836120ac565b9250828203905081811115612c7457612c7361286d565b5b92915050565b7f4552433732313a20696e76616c696420746f6b656e2049440000000000000000600082015250565b6000612cb0601883612244565b9150612cbb82612c7a565b602082019050919050565b60006020820190508181036000830152612cdf81612ca3565b9050919050565b7f4552433732313a2061646472657373207a65726f206973206e6f74206120766160008201527f6c6964206f776e65720000000000000000000000000000000000000000000000602082015250565b6000612d42602983612244565b9150612d4d82612ce6565b604082019050919050565b60006020820190508181036000830152612d7181612d35565b9050919050565b7f4e465420646f6573206e6f742065786973740000000000000000000000000000600082015250565b6000612dae601283612244565b9150612db982612d78565b602082019050919050565b60006020820190508181036000830152612ddd81612da1565b9050919050565b7f4e6f7420746865206f776e657200000000000000000000000000000000000000600082015250565b6000612e1a600d83612244565b9150612e2582612de4565b602082019050919050565b60006020820190508181036000830152612e4981612e0d565b9050919050565b7f5072696365206d7573742062652067726561746572207468616e207a65726f00600082015250565b6000612e86601f83612244565b9150612e9182612e50565b602082019050919050565b60006020820190508181036000830152612eb581612e79565b9050919050565b6000606082019050612ed1600083018661240c565b612ede602083018561240c565b612eeb6040830184612376565b949350505050565b7f4552433732314d657461646174613a2055524920717565727920666f72206e6f60008201527f6e6578697374656e7420746f6b656e0000000000000000000000000000000000602082015250565b6000612f4f602f83612244565b9150612f5a82612ef3565b604082019050919050565b60006020820190508181036000830152612f7e81612f42565b9050919050565b7f4f776e61626c653a206e6577206f776e657220697320746865207a65726f206160008201527f6464726573730000000000000000000000000000000000000000000000000000602082015250565b6000612fe1602683612244565b9150612fec82612f85565b604082019050919050565b6000602082019050818103600083015261301081612fd4565b9050919050565b7f4552433732313a207472616e736665722066726f6d20696e636f72726563742060008201527f6f776e6572000000000000000000000000000000000000000000000000000000602082015250565b6000613073602583612244565b915061307e82613017565b604082019050919050565b600060208201905081810360008301526130a281613066565b9050919050565b7f4552433732313a207472616e7366657220746f20746865207a65726f2061646460008201527f7265737300000000000000000000000000000000000000000000000000000000602082015250565b6000613105602483612244565b9150613110826130a9565b604082019050919050565b60006020820190508181036000830152613134816130f8565b9050919050565b7f4f776e61626c653a2063616c6c6572206973206e6f7420746865206f776e6572600082015250565b6000613171602083612244565b915061317c8261313b565b602082019050919050565b600060208201905081810360008301526131a081613164565b9050919050565b7f4552433732313a20617070726f766520746f2063616c6c657200000000000000600082015250565b60006131dd601983612244565b91506131e8826131a7565b602082019050919050565b6000602082019050818103600083015261320c816131d0565b9050919050565b7f4552433732313a207472616e7366657220746f206e6f6e20455243373231526560008201527f63656976657220696d706c656d656e7465720000000000000000000000000000602082015250565b600061326f603283612244565b915061327a82613213565b604082019050919050565b6000602082019050818103600083015261329e81613262565b9050919050565b7f4552433732314d657461646174613a2055524920736574206f66206e6f6e657860008201527f697374656e7420746f6b656e0000000000000000000000000000000000000000602082015250565b6000613301602c83612244565b915061330c826132a5565b604082019050919050565b60006020820190508181036000830152613330816132f4565b9050919050565b60008190508160005260206000209050919050565b60006020601f8301049050919050565b600082821b905092915050565b6000600883026133997fffffffffffffffffffffffffffffffffffffffffffffffffffffffffffffffff8261335c565b6133a3868361335c565b95508019841693508086168417925050509392505050565b6000819050919050565b60006133e06133db6133d6846120ac565b6133bb565b6120ac565b9050919050565b6000819050919050565b6133fa836133c5565b61340e613406826133e7565b848454613369565b825550505050565b600090565b613423613416565b61342e8184846133f1565b505050565b5b818110156134525761344760008261341b565b600181019050613434565b5050565b601f8211156134975761346881613337565b6134718461334c565b81016020851015613480578190505b61349461348c8561334c565b830182613433565b50505b505050565b600082821c905092915050565b60006134ba6000198460080261349c565b1980831691505092915050565b60006134d383836134a9565b9150826002028217905092915050565b6134ec82612239565b67ffffffffffffffff81111561350557613504612595565b5b61350f8254612942565b61351a828285613456565b600060209050601f83116001811461354d576000841561353b578287015190505b61354585826134c7565b8655506135ad565b601f19841661355b86613337565b60005b828110156135835784890151825560018201915060208501945060208101905061355e565b868310156135a0578489015161359c601f8916826134a9565b8355505b6001600288020188555050505b505050505050565b600081519050919050565b600082825260208201905092915050565b60006135dc826135b5565b6135e681856135c0565b93506135f6818560208601612255565b6135ff8161227f565b840191505092915050565b600060808201905061361f6000830187612376565b61362c6020830186612376565b613639604083018561240c565b818103606083015261364b81846135d1565b905095945050505050565b600081519050613665816121aa565b92915050565b60006020828403121561368157613680612174565b5b600061368f84828501613656565b91505092915050565b7f4552433732313a206d696e7420746f20746865207a65726f2061646472657373600082015250565b60006136ce602083612244565b91506136d982613698565b602082019050919050565b600060208201905081810360008301526136fd816136c1565b9050919050565b7f4552433732313a20746f6b656e20616c7265616479206d696e74656400000000600082015250565b600061373a601c83612244565b915061374582613704565b602082019050919050565b600060208201905081810360008301526137698161372d565b905091905056fea2646970667358221220468cf5ebce70f85171f405cea09320e78b5946d55f47dc03b2d0e1fbcda5869b64736f6c634300081b0033",
  "linkReferences": {},
  "deployedLinkReferences": {}
}