{
  "_format": "hh-sol-artifact-1",
  "contractName": "MyNFTMarketplace",
  "sourceName": "contracts/NFTMarketplaceUpdated.sol",
  "abi": [
    {
      "inputs": [],
      "stateMutability": "nonpayable",
      "type": "constructor"
    },
    {
      "anonymous": false,
      "inputs": [
        {
          "indexed": true,
          "internalType": "address",
          "name": "owner",
          "type": "address"
        },
        {
          "indexed": true,
          "internalType": "address",
          "name": "approved",
          "type": "address"
        },
        {
          "indexed": true,
          "internalType": "uint256",
          "name": "tokenId",
          "type": "uint256"
        }
      ],
      "name": "Approval",
      "type": "event"
    },
    {
      "anonymous": false,
      "inputs": [
        {
          "indexed": true,
          "internalType": "address",
          "name": "owner",
          "type": "address"
        },
        {
          "indexed": true,
          "internalType": "address",
          "name": "operator",
          "type": "address"
        },
        {
          "indexed": false,
          "internalType": "bool",
          "name": "approved",
          "type": "bool"
        }
      ],
      "name": "ApprovalForAll",
      "type": "event"
    },
    {
      "anonymous": false,
      "inputs": [
        {
          "indexed": false,
          "internalType": "uint256",
          "name": "tokenId",
          "type": "uint256"
        },
        {
          "indexed": false,
          "internalType": "uint256",
          "name": "price",
          "type": "uint256"
        },
        {
          "indexed": false,
          "internalType": "address",
          "name": "seller",
          "type": "address"
        }
      ],
      "name": "NFTListed",
      "type": "event"
    },
    {
      "anonymous": false,
      "inputs": [
        {
          "indexed": false,
          "internalType": "uint256",
          "name": "tokenId",
          "type": "uint256"
        },
        {
          "indexed": false,
          "internalType": "uint256",
          "name": "price",
          "type": "uint256"
        },
        {
          "indexed": false,
          "internalType": "address",
          "name": "seller",
          "type": "address"
        },
        {
          "indexed": false,
          "internalType": "address",
          "name": "buyer",
          "type": "address"
        }
      ],
      "name": "NFTSold",
      "type": "event"
    },
    {
      "anonymous": false,
      "inputs": [
        {
          "indexed": true,
          "internalType": "address",
          "name": "previousOwner",
          "type": "address"
        },
        {
          "indexed": true,
          "internalType": "address",
          "name": "newOwner",
          "type": "address"
        }
      ],
      "name": "OwnershipTransferred",
      "type": "event"
    },
    {
      "anonymous": false,
      "inputs": [
        {
          "indexed": true,
          "internalType": "address",
          "name": "from",
          "type": "address"
        },
        {
          "indexed": true,
          "internalType": "address",
          "name": "to",
          "type": "address"
        },
        {
          "indexed": true,
          "internalType": "uint256",
          "name": "tokenId",
          "type": "uint256"
        }
      ],
      "name": "Transfer",
      "type": "event"
    },
    {
      "inputs": [
        {
          "internalType": "address",
          "name": "to",
          "type": "address"
        },
        {
          "internalType": "uint256",
          "name": "tokenId",
          "type": "uint256"
        }
      ],
      "name": "approve",
      "outputs": [],
      "stateMutability": "nonpayable",
      "type": "function"
    },
    {
      "inputs": [
        {
          "internalType": "address",
          "name": "owner",
          "type": "address"
        }
      ],
      "name": "balanceOf",
      "outputs": [
        {
          "internalType": "uint256",
          "name": "",
          "type": "uint256"
        }
      ],
      "stateMutability": "view",
      "type": "function"
    },
    {
      "inputs": [
        {
          "internalType": "uint256",
          "name": "tokenId",
          "type": "uint256"
        }
      ],
      "name": "buyNFT",
      "outputs": [],
      "stateMutability": "payable",
      "type": "function"
    },
    {
      "inputs": [
        {
          "internalType": "uint256",
          "name": "tokenId",
          "type": "uint256"
        }
      ],
      "name": "getApproved",
      "outputs": [
        {
          "internalType": "address",
          "name": "",
          "type": "address"
        }
      ],
      "stateMutability": "view",
      "type": "function"
    },
    {
      "inputs": [
        {
          "internalType": "uint256",
          "name": "tokenId",
          "type": "uint256"
        }
      ],
      "name": "getCreator",
      "outputs": [
        {
          "internalType": "address",
          "name": "",
          "type": "address"
        }
      ],
      "stateMutability": "view",
      "type": "function"
    },
    {
      "inputs": [],
      "name": "getListedNFTs",
      "outputs": [
        {
          "internalType": "uint256[]",
          "name": "",
          "type": "uint256[]"
        }
      ],
      "stateMutability": "view",
      "type": "function"
    },
    {
      "inputs": [
        {
          "internalType": "uint256",
          "name": "tokenId",
          "type": "uint256"
        }
      ],
      "name": "getNFTListing",
      "outputs": [
        {
          "internalType": "uint256",
          "name": "price",
          "type": "uint256"
        },
        {
          "internalType": "address",
          "name": "seller",
          "type": "address"
        }
      ],
      "stateMutability": "view",
      "type": "function"
    },
    {
      "inputs": [
        {
          "internalType": "address",
          "name": "owner",
          "type": "address"
        }
      ],
      "name": "getOwnedTokens",
      "outputs": [
        {
          "internalType": "uint256[]",
          "name": "",
          "type": "uint256[]"
        }
      ],
      "stateMutability": "view",
      "type": "function"
    },
    {
      "inputs": [
        {
          "internalType": "uint256",
          "name": "tokenId",
          "type": "uint256"
        }
      ],
      "name": "getRoyalty",
      "outputs": [
        {
          "internalType": "uint256",
          "name": "",
          "type": "uint256"
        }
      ],
      "stateMutability": "view",
      "type": "function"
    },
    {
      "inputs": [
        {
          "internalType": "address",
          "name": "owner",
          "type": "address"
        },
        {
          "internalType": "address",
          "name": "operator",
          "type": "address"
        }
      ],
      "name": "isApprovedForAll",
      "outputs": [
        {
          "internalType": "bool",
          "name": "",
          "type": "bool"
        }
      ],
      "stateMutability": "view",
      "type": "function"
    },
    {
      "inputs": [
        {
          "internalType": "uint256",
          "name": "tokenId",
          "type": "uint256"
        },
        {
          "internalType": "uint256",
          "name": "price",
          "type": "uint256"
        }
      ],
      "name": "listNFT",
      "outputs": [],
      "stateMutability": "nonpayable",
      "type": "function"
    },
    {
      "inputs": [
        {
          "internalType": "string",
          "name": "_tokenURI",
          "type": "string"
        },
        {
          "internalType": "uint256",
          "name": "royalty",
          "type": "uint256"
        }
      ],
      "name": "mint",
      "outputs": [
        {
          "internalType": "uint256",
          "name": "",
          "type": "uint256"
        }
      ],
      "stateMutability": "nonpayable",
      "type": "function"
    },
    {
      "inputs": [],
      "name": "name",
      "outputs": [
        {
          "internalType": "string",
          "name": "",
          "type": "string"
        }
      ],
      "stateMutability": "view",
      "type": "function"
    },
    {
      "inputs": [],
      "name": "owner",
      "outputs": [
        {
          "internalType": "address",
          "name": "",
          "type": "address"
        }
      ],
      "stateMutability": "view",
      "type": "function"
    },
    {
      "inputs": [
        {
          "internalType": "uint256",
          "name": "tokenId",
          "type": "uint256"
        }
      ],
      "name": "ownerOf",
      "outputs": [
        {
          "internalType": "address",
          "name": "",
          "type": "address"
        }
      ],
      "stateMutability": "view",
      "type": "function"
    },
    {
      "inputs": [],
      "name": "renounceOwnership",
      "outputs": [],
      "stateMutability": "nonpayable",
      "type": "function"
    },
    {
      "inputs": [
        {
          "internalType": "address",
          "name": "from",
          "type": "address"
        },
        {
          "internalType": "address",
          "name": "to",
          "type": "address"
        },
        {
          "internalType": "uint256",
          "name": "tokenId",
          "type": "uint256"
        }
      ],
      "name": "safeTransferFrom",
      "outputs": [],
      "stateMutability": "nonpayable",
      "type": "function"
    },
    {
      "inputs": [
        {
          "internalType": "address",
          "name": "from",
          "type": "address"
        },
        {
          "internalType": "address",
          "name": "to",
          "type": "address"
        },
        {
          "internalType": "uint256",
          "name": "tokenId",
          "type": "uint256"
        },
        {
          "internalType": "bytes",
          "name": "data",
          "type": "bytes"
        }
      ],
      "name": "safeTransferFrom",
      "outputs": [],
      "stateMutability": "nonpayable",
      "type": "function"
    },
    {
      "inputs": [
        {
          "internalType": "address",
          "name": "operator",
          "type": "address"
        },
        {
          "internalType": "bool",
          "name": "approved",
          "type": "bool"
        }
      ],
      "name": "setApprovalForAll",
      "outputs": [],
      "stateMutability": "nonpayable",
      "type": "function"
    },
    {
      "inputs": [
        {
          "internalType": "bytes4",
          "name": "interfaceId",
          "type": "bytes4"
        }
      ],
      "name": "supportsInterface",
      "outputs": [
        {
          "internalType": "bool",
          "name": "",
          "type": "bool"
        }
      ],
      "stateMutability": "view",
      "type": "function"
    },
    {
      "inputs": [],
      "name": "symbol",
      "outputs": [
        {
          "internalType": "string",
          "name": "",
          "type": "string"
        }
      ],
      "stateMutability": "view",
      "type": "function"
    },
    {
      "inputs": [
        {
          "internalType": "uint256",
          "name": "tokenId",
          "type": "uint256"
        }
      ],
      "name": "tokenURI",
      "outputs": [
        {
          "internalType": "string",
          "name": "",
          "type": "string"
        }
      ],
      "stateMutability": "view",
      "type": "function"
    },
    {
      "inputs": [
        {
          "internalType": "address",
          "name": "from",
          "type": "address"
        },
        {
          "internalType": "address",
          "name": "to",
          "type": "address"
        },
        {
          "internalType": "uint256",
          "name": "tokenId",
          "type": "uint256"
        }
      ],
      "name": "transferFrom",
      "outputs": [],
      "stateMutability": "nonpayable",
      "type": "function"
    },
    {
      "inputs": [
        {
          "internalType": "address",
          "name": "newOwner",
          "type": "address"
        }
      ],
      "name": "transferOwnership",
      "outputs": [],
      "stateMutability": "nonpayable",
      "type": "function"
    }
  ],
  "bytecode": "0x608060405234801561001057600080fd5b506040518060400160405280600581526020017f4d794e46540000000000000000000000000000000000000000000000000000008152506040518060400160405280600481526020017f4d4e465400000000000000000000000000000000000000000000000000000000815250816000908161008c91906103de565b50806001908161009c91906103de565b5050506100bb6100b06100c060201b60201c565b6100c860201b60201c565b6104b0565b600033905090565b6000600660009054906101000a900473ffffffffffffffffffffffffffffffffffffffff16905081600660006101000a81548173ffffffffffffffffffffffffffffffffffffffff021916908373ffffffffffffffffffffffffffffffffffffffff1602179055508173ffffffffffffffffffffffffffffffffffffffff168173ffffffffffffffffffffffffffffffffffffffff167f8be0079c531659141344cd1fd0a4f28419497f9722a3daafe3b4186f6b6457e060405160405180910390a35050565b600081519050919050565b7f4e487b7100000000000000000000000000000000000000000000000000000000600052604160045260246000fd5b7f4e487b7100000000000000000000000000000000000000000000000000000000600052602260045260246000fd5b6000600282049050600182168061020f57607f821691505b602082108103610222576102216101c8565b5b50919050565b60008190508160005260206000209050919050565b60006020601f8301049050919050565b600082821b905092915050565b60006008830261028a7fffffffffffffffffffffffffffffffffffffffffffffffffffffffffffffffff8261024d565b610294868361024d565b95508019841693508086168417925050509392505050565b6000819050919050565b6000819050919050565b60006102db6102d66102d1846102ac565b6102b6565b6102ac565b9050919050565b6000819050919050565b6102f5836102c0565b610309610301826102e2565b84845461025a565b825550505050565b600090565b61031e610311565b6103298184846102ec565b505050565b5b8181101561034d57610342600082610316565b60018101905061032f565b5050565b601f8211156103925761036381610228565b61036c8461023d565b8101602085101561037b578190505b61038f6103878561023d565b83018261032e565b50505b505050565b600082821c905092915050565b60006103b560001984600802610397565b1980831691505092915050565b60006103ce83836103a4565b9150826002028217905092915050565b6103e78261018e565b67ffffffffffffffff811115610400576103ff610199565b5b61040a82546101f7565b610415828285610351565b600060209050601f8311600181146104485760008415610436578287015190505b61044085826103c2565b8655506104a8565b601f19841661045686610228565b60005b8281101561047e57848901518255600182019150602085019450602081019050610459565b8683101561049b5784890151610497601f8916826103a4565b8355505b6001600288020188555050505b505050505050565b613f17806104bf6000396000f3fe60806040526004361061014b5760003560e01c806370a08231116100b6578063b88d4fde1161006f578063b88d4fde146104a8578063c87b56dd146104d1578063d48e638a1461050e578063d9d616551461054b578063e985e9c514610588578063f2fde38b146105c55761014b565b806370a08231146103ac578063715018a6146103e95780638da5cb5b1461040057806394383f141461042b57806395d89b4114610454578063a22cb4651461047f5761014b565b80630ea59c4b116101085780630ea59c4b146102865780631af9cf49146102c457806323b872dd1461030157806342842e0e1461032a57806351ed8288146103535780636352211e1461036f5761014b565b8063012386f01461015057806301ffc9a71461017b578063056b01ce146101b857806306fdde03146101f5578063081812fc14610220578063095ea7b31461025d575b600080fd5b34801561015c57600080fd5b506101656105ee565b6040516101729190612743565b60405180910390f35b34801561018757600080fd5b506101a2600480360381019061019d91906127d1565b61071a565b6040516101af9190612819565b60405180910390f35b3480156101c457600080fd5b506101df60048036038101906101da91906129a6565b6107fc565b6040516101ec9190612a11565b60405180910390f35b34801561020157600080fd5b5061020a610948565b6040516102179190612aab565b60405180910390f35b34801561022c57600080fd5b5061024760048036038101906102429190612acd565b6109da565b6040516102549190612b3b565b60405180910390f35b34801561026957600080fd5b50610284600480360381019061027f9190612b82565b610a20565b005b34801561029257600080fd5b506102ad60048036038101906102a89190612acd565b610b37565b6040516102bb929190612bc2565b60405180910390f35b3480156102d057600080fd5b506102eb60048036038101906102e69190612acd565b610bd0565b6040516102f89190612a11565b60405180910390f35b34801561030d57600080fd5b5061032860048036038101906103239190612beb565b610bed565b005b34801561033657600080fd5b50610351600480360381019061034c9190612beb565b610c4d565b005b61036d60048036038101906103689190612acd565b610c6d565b005b34801561037b57600080fd5b5061039660048036038101906103919190612acd565b610fe9565b6040516103a39190612b3b565b60405180910390f35b3480156103b857600080fd5b506103d360048036038101906103ce9190612c3e565b61106f565b6040516103e09190612a11565b60405180910390f35b3480156103f557600080fd5b506103fe611126565b005b34801561040c57600080fd5b5061041561113a565b6040516104229190612b3b565b60405180910390f35b34801561043757600080fd5b50610452600480360381019061044d9190612c6b565b611164565b005b34801561046057600080fd5b50610469611336565b6040516104769190612aab565b60405180910390f35b34801561048b57600080fd5b506104a660048036038101906104a19190612cd7565b6113c8565b005b3480156104b457600080fd5b506104cf60048036038101906104ca9190612db8565b6113de565b005b3480156104dd57600080fd5b506104f860048036038101906104f39190612acd565b611440565b6040516105059190612aab565b60405180910390f35b34801561051a57600080fd5b5061053560048036038101906105309190612acd565b61152d565b6040516105429190612b3b565b60405180910390f35b34801561055757600080fd5b50610572600480360381019061056d9190612c3e565b61156a565b60405161057f9190612743565b60405180910390f35b34801561059457600080fd5b506105af60048036038101906105aa9190612e3b565b611601565b6040516105bc9190612819565b60405180910390f35b3480156105d157600080fd5b506105ec60048036038101906105e79190612c3e565b611695565b005b6060600080600190505b6106026007611718565b81116106495760006009600083815260200190815260200160002060000154111561063657818061063290612eaa565b9250505b808061064190612eaa565b9150506105f8565b5060008167ffffffffffffffff8111156106665761066561284f565b5b6040519080825280602002602001820160405280156106945781602001602082028036833780820191505090505b509050600080600190505b6106a96007611718565b8111610710576000600960008381526020019081526020016000206000015411156106fd57808383815181106106e2576106e1612ef2565b5b60200260200101818152505081806106f990612eaa565b9250505b808061070890612eaa565b91505061069f565b5081935050505090565b60007f80ac58cd000000000000000000000000000000000000000000000000000000007bffffffffffffffffffffffffffffffffffffffffffffffffffffffff1916827bffffffffffffffffffffffffffffffffffffffffffffffffffffffff191614806107e557507f5b5e139f000000000000000000000000000000000000000000000000000000007bffffffffffffffffffffffffffffffffffffffffffffffffffffffff1916827bffffffffffffffffffffffffffffffffffffffffffffffffffffffff1916145b806107f557506107f482611726565b5b9050919050565b60006064821115610842576040517f08c379a000000000000000000000000000000000000000000000000000000000815260040161083990612f93565b60405180910390fd5b61084c6007611790565b60006108586007611718565b905061086433826117a6565b61086e81856117c4565b33600a600083815260200190815260200160002060006101000a81548173ffffffffffffffffffffffffffffffffffffffff021916908373ffffffffffffffffffffffffffffffffffffffff16021790555082600b600083815260200190815260200160002081905550600c60003373ffffffffffffffffffffffffffffffffffffffff1673ffffffffffffffffffffffffffffffffffffffff1681526020019081526020016000208190806001815401808255809150506001900390600052602060002001600090919091909150558091505092915050565b60606000805461095790612fe2565b80601f016020809104026020016040519081016040528092919081815260200182805461098390612fe2565b80156109d05780601f106109a5576101008083540402835291602001916109d0565b820191906000526020600020905b8154815290600101906020018083116109b357829003601f168201915b5050505050905090565b60006109e582611831565b6004600083815260200190815260200160002060009054906101000a900473ffffffffffffffffffffffffffffffffffffffff169050919050565b6000610a2b82610fe9565b90508073ffffffffffffffffffffffffffffffffffffffff168373ffffffffffffffffffffffffffffffffffffffff1603610a9b576040517f08c379a0000000000000000000000000000000000000000000000000000000008152600401610a9290613085565b60405180910390fd5b8073ffffffffffffffffffffffffffffffffffffffff16610aba61187c565b73ffffffffffffffffffffffffffffffffffffffff161480610ae95750610ae881610ae361187c565b611601565b5b610b28576040517f08c379a0000000000000000000000000000000000000000000000000000000008152600401610b1f90613117565b60405180910390fd5b610b328383611884565b505050565b600080600060096000858152602001908152602001600020604051806040016040529081600082015481526020016001820160009054906101000a900473ffffffffffffffffffffffffffffffffffffffff1673ffffffffffffffffffffffffffffffffffffffff1673ffffffffffffffffffffffffffffffffffffffff16815250509050806000015181602001519250925050915091565b6000600b6000838152602001908152602001600020549050919050565b610bfe610bf861187c565b8261193d565b610c3d576040517f08c379a0000000000000000000000000000000000000000000000000000000008152600401610c34906131a9565b60405180910390fd5b610c488383836119d2565b505050565b610c68838383604051806020016040528060008152506113de565b505050565b600060096000838152602001908152602001600020604051806040016040529081600082015481526020016001820160009054906101000a900473ffffffffffffffffffffffffffffffffffffffff1673ffffffffffffffffffffffffffffffffffffffff1673ffffffffffffffffffffffffffffffffffffffff168152505090506000816000015111610d36576040517f08c379a0000000000000000000000000000000000000000000000000000000008152600401610d2d90613215565b60405180910390fd5b8060000151341015610d7d576040517f08c379a0000000000000000000000000000000000000000000000000000000008152600401610d7490613281565b60405180910390fd5b60008160200151905060008260000151905060006064600b60008781526020019081526020016000205483610db291906132a1565b610dbc9190613312565b90508273ffffffffffffffffffffffffffffffffffffffff166108fc8284610de49190613343565b9081150290604051600060405180830381858888f19350505050158015610e0f573d6000803e3d6000fd5b50600a600086815260200190815260200160002060009054906101000a900473ffffffffffffffffffffffffffffffffffffffff1673ffffffffffffffffffffffffffffffffffffffff166108fc829081150290604051600060405180830381858888f19350505050158015610e89573d6000803e3d6000fd5b50600960008681526020019081526020016000206000808201600090556001820160006101000a81549073ffffffffffffffffffffffffffffffffffffffff02191690555050610ed98386611ccb565b600c60003373ffffffffffffffffffffffffffffffffffffffff1673ffffffffffffffffffffffffffffffffffffffff168152602001908152602001600020859080600181540180825580915050600190039060005260206000200160009091909190915055610f4a8333876119d2565b7f2820044bbebd591ee7d08b7d81dd01945a1a32706da693a946e532d6d988425885838533604051610f7f9493929190613377565b60405180910390a181341115610fe2573373ffffffffffffffffffffffffffffffffffffffff166108fc8334610fb59190613343565b9081150290604051600060405180830381858888f19350505050158015610fe0573d6000803e3d6000fd5b505b5050505050565b600080610ff583611ec3565b9050600073ffffffffffffffffffffffffffffffffffffffff168173ffffffffffffffffffffffffffffffffffffffff1603611066576040517f08c379a000000000000000000000000000000000000000000000000000000000815260040161105d90613408565b60405180910390fd5b80915050919050565b60008073ffffffffffffffffffffffffffffffffffffffff168273ffffffffffffffffffffffffffffffffffffffff16036110df576040517f08c379a00000000000000000000000000000000000000000000000000000000081526004016110d69061349a565b60405180910390fd5b600360008373ffffffffffffffffffffffffffffffffffffffff1673ffffffffffffffffffffffffffffffffffffffff168152602001908152602001600020549050919050565b61112e611f00565b6111386000611f7e565b565b6000600660009054906101000a900473ffffffffffffffffffffffffffffffffffffffff16905090565b61116d82612044565b6111ac576040517f08c379a00000000000000000000000000000000000000000000000000000000081526004016111a390613506565b60405180910390fd5b3373ffffffffffffffffffffffffffffffffffffffff166111cc83610fe9565b73ffffffffffffffffffffffffffffffffffffffff1614611222576040517f08c379a000000000000000000000000000000000000000000000000000000000815260040161121990613572565b60405180910390fd5b60008111611265576040517f08c379a000000000000000000000000000000000000000000000000000000000815260040161125c906135de565b60405180910390fd5b60405180604001604052808281526020013373ffffffffffffffffffffffffffffffffffffffff16815250600960008481526020019081526020016000206000820151816000015560208201518160010160006101000a81548173ffffffffffffffffffffffffffffffffffffffff021916908373ffffffffffffffffffffffffffffffffffffffff1602179055509050507fd2ab19646d6f9fdd37206f962b4ebaab8a4a23ad87f7695e7e1736803cb8bf7482823360405161132a939291906135fe565b60405180910390a15050565b60606001805461134590612fe2565b80601f016020809104026020016040519081016040528092919081815260200182805461137190612fe2565b80156113be5780601f10611393576101008083540402835291602001916113be565b820191906000526020600020905b8154815290600101906020018083116113a157829003601f168201915b5050505050905090565b6113da6113d361187c565b8383612085565b5050565b6113ef6113e961187c565b8361193d565b61142e576040517f08c379a0000000000000000000000000000000000000000000000000000000008152600401611425906131a9565b60405180910390fd5b61143a848484846121f1565b50505050565b606061144b82612044565b61148a576040517f08c379a0000000000000000000000000000000000000000000000000000000008152600401611481906136a7565b60405180910390fd5b6008600083815260200190815260200160002080546114a890612fe2565b80601f01602080910402602001604051908101604052809291908181526020018280546114d490612fe2565b80156115215780601f106114f657610100808354040283529160200191611521565b820191906000526020600020905b81548152906001019060200180831161150457829003601f168201915b50505050509050919050565b6000600a600083815260200190815260200160002060009054906101000a900473ffffffffffffffffffffffffffffffffffffffff169050919050565b6060600c60008373ffffffffffffffffffffffffffffffffffffffff1673ffffffffffffffffffffffffffffffffffffffff1681526020019081526020016000208054806020026020016040519081016040528092919081815260200182805480156115f557602002820191906000526020600020905b8154815260200190600101908083116115e1575b50505050509050919050565b6000600560008473ffffffffffffffffffffffffffffffffffffffff1673ffffffffffffffffffffffffffffffffffffffff16815260200190815260200160002060008373ffffffffffffffffffffffffffffffffffffffff1673ffffffffffffffffffffffffffffffffffffffff16815260200190815260200160002060009054906101000a900460ff16905092915050565b61169d611f00565b600073ffffffffffffffffffffffffffffffffffffffff168173ffffffffffffffffffffffffffffffffffffffff160361170c576040517f08c379a000000000000000000000000000000000000000000000000000000000815260040161170390613739565b60405180910390fd5b61171581611f7e565b50565b600081600001549050919050565b60007f01ffc9a7000000000000000000000000000000000000000000000000000000007bffffffffffffffffffffffffffffffffffffffffffffffffffffffff1916827bffffffffffffffffffffffffffffffffffffffffffffffffffffffff1916149050919050565b6001816000016000828254019250508190555050565b6117c082826040518060200160405280600081525061224d565b5050565b6117cd82612044565b61180c576040517f08c379a0000000000000000000000000000000000000000000000000000000008152600401611803906137cb565b60405180910390fd5b8060086000848152602001908152602001600020908161182c9190613997565b505050565b61183a81612044565b611879576040517f08c379a000000000000000000000000000000000000000000000000000000000815260040161187090613408565b60405180910390fd5b50565b600033905090565b816004600083815260200190815260200160002060006101000a81548173ffffffffffffffffffffffffffffffffffffffff021916908373ffffffffffffffffffffffffffffffffffffffff160217905550808273ffffffffffffffffffffffffffffffffffffffff166118f783610fe9565b73ffffffffffffffffffffffffffffffffffffffff167f8c5be1e5ebec7d5bd14f71427d1e84f3dd0314c0f7b2291e5b200ac8c7c3b92560405160405180910390a45050565b60008061194983610fe9565b90508073ffffffffffffffffffffffffffffffffffffffff168473ffffffffffffffffffffffffffffffffffffffff16148061198b575061198a8185611601565b5b806119c957508373ffffffffffffffffffffffffffffffffffffffff166119b1846109da565b73ffffffffffffffffffffffffffffffffffffffff16145b91505092915050565b8273ffffffffffffffffffffffffffffffffffffffff166119f282610fe9565b73ffffffffffffffffffffffffffffffffffffffff1614611a48576040517f08c379a0000000000000000000000000000000000000000000000000000000008152600401611a3f90613adb565b60405180910390fd5b600073ffffffffffffffffffffffffffffffffffffffff168273ffffffffffffffffffffffffffffffffffffffff1603611ab7576040517f08c379a0000000000000000000000000000000000000000000000000000000008152600401611aae90613b6d565b60405180910390fd5b611ac483838360016122a8565b8273ffffffffffffffffffffffffffffffffffffffff16611ae482610fe9565b73ffffffffffffffffffffffffffffffffffffffff1614611b3a576040517f08c379a0000000000000000000000000000000000000000000000000000000008152600401611b3190613adb565b60405180910390fd5b6004600082815260200190815260200160002060006101000a81549073ffffffffffffffffffffffffffffffffffffffff02191690556001600360008573ffffffffffffffffffffffffffffffffffffffff1673ffffffffffffffffffffffffffffffffffffffff168152602001908152602001600020600082825403925050819055506001600360008473ffffffffffffffffffffffffffffffffffffffff1673ffffffffffffffffffffffffffffffffffffffff16815260200190815260200160002060008282540192505081905550816002600083815260200190815260200160002060006101000a81548173ffffffffffffffffffffffffffffffffffffffff021916908373ffffffffffffffffffffffffffffffffffffffff160217905550808273ffffffffffffffffffffffffffffffffffffffff168473ffffffffffffffffffffffffffffffffffffffff167fddf252ad1be2c89b69c2b068fc378daa952ba7f163c4a11628f55a4df523b3ef60405160405180910390a4611cc683838360016122ae565b505050565b6000600c60008473ffffffffffffffffffffffffffffffffffffffff1673ffffffffffffffffffffffffffffffffffffffff16815260200190815260200160002080549050905060005b81811015611ebd5782600c60008673ffffffffffffffffffffffffffffffffffffffff1673ffffffffffffffffffffffffffffffffffffffff1681526020019081526020016000208281548110611d6f57611d6e612ef2565b5b906000526020600020015403611eb057600c60008573ffffffffffffffffffffffffffffffffffffffff1673ffffffffffffffffffffffffffffffffffffffff168152602001908152602001600020600183611dcb9190613343565b81548110611ddc57611ddb612ef2565b5b9060005260206000200154600c60008673ffffffffffffffffffffffffffffffffffffffff1673ffffffffffffffffffffffffffffffffffffffff1681526020019081526020016000208281548110611e3857611e37612ef2565b5b9060005260206000200181905550600c60008573ffffffffffffffffffffffffffffffffffffffff1673ffffffffffffffffffffffffffffffffffffffff168152602001908152602001600020805480611e9557611e94613b8d565b5b60019003818190600052602060002001600090559055611ebd565b8080600101915050611d15565b50505050565b60006002600083815260200190815260200160002060009054906101000a900473ffffffffffffffffffffffffffffffffffffffff169050919050565b611f0861187c565b73ffffffffffffffffffffffffffffffffffffffff16611f2661113a565b73ffffffffffffffffffffffffffffffffffffffff1614611f7c576040517f08c379a0000000000000000000000000000000000000000000000000000000008152600401611f7390613c08565b60405180910390fd5b565b6000600660009054906101000a900473ffffffffffffffffffffffffffffffffffffffff16905081600660006101000a81548173ffffffffffffffffffffffffffffffffffffffff021916908373ffffffffffffffffffffffffffffffffffffffff1602179055508173ffffffffffffffffffffffffffffffffffffffff168173ffffffffffffffffffffffffffffffffffffffff167f8be0079c531659141344cd1fd0a4f28419497f9722a3daafe3b4186f6b6457e060405160405180910390a35050565b60008073ffffffffffffffffffffffffffffffffffffffff1661206683611ec3565b73ffffffffffffffffffffffffffffffffffffffff1614159050919050565b8173ffffffffffffffffffffffffffffffffffffffff168373ffffffffffffffffffffffffffffffffffffffff16036120f3576040517f08c379a00000000000000000000000000000000000000000000000000000000081526004016120ea90613c74565b60405180910390fd5b80600560008573ffffffffffffffffffffffffffffffffffffffff1673ffffffffffffffffffffffffffffffffffffffff16815260200190815260200160002060008473ffffffffffffffffffffffffffffffffffffffff1673ffffffffffffffffffffffffffffffffffffffff16815260200190815260200160002060006101000a81548160ff0219169083151502179055508173ffffffffffffffffffffffffffffffffffffffff168373ffffffffffffffffffffffffffffffffffffffff167f17307eab39ab6107e8899845ad3d59bd9653f200f220920489ca2b5937696c31836040516121e49190612819565b60405180910390a3505050565b6121fc8484846119d2565b612208848484846122b4565b612247576040517f08c379a000000000000000000000000000000000000000000000000000000000815260040161223e90613d06565b60405180910390fd5b50505050565b612257838361243b565b61226460008484846122b4565b6122a3576040517f08c379a000000000000000000000000000000000000000000000000000000000815260040161229a90613d06565b60405180910390fd5b505050565b50505050565b50505050565b60006122d58473ffffffffffffffffffffffffffffffffffffffff16612658565b1561242e578373ffffffffffffffffffffffffffffffffffffffff1663150b7a026122fe61187c565b8786866040518563ffffffff1660e01b81526004016123209493929190613d7b565b6020604051808303816000875af192505050801561235c57506040513d601f19601f820116820180604052508101906123599190613ddc565b60015b6123de573d806000811461238c576040519150601f19603f3d011682016040523d82523d6000602084013e612391565b606091505b5060008151036123d6576040517f08c379a00000000000000000000000000000000000000000000000000000000081526004016123cd90613d06565b60405180910390fd5b805181602001fd5b63150b7a0260e01b7bffffffffffffffffffffffffffffffffffffffffffffffffffffffff1916817bffffffffffffffffffffffffffffffffffffffffffffffffffffffff191614915050612433565b600190505b949350505050565b600073ffffffffffffffffffffffffffffffffffffffff168273ffffffffffffffffffffffffffffffffffffffff16036124aa576040517f08c379a00000000000000000000000000000000000000000000000000000000081526004016124a190613e55565b60405180910390fd5b6124b381612044565b156124f3576040517f08c379a00000000000000000000000000000000000000000000000000000000081526004016124ea90613ec1565b60405180910390fd5b6125016000838360016122a8565b61250a81612044565b1561254a576040517f08c379a000000000000000000000000000000000000000000000000000000000815260040161254190613ec1565b60405180910390fd5b6001600360008473ffffffffffffffffffffffffffffffffffffffff1673ffffffffffffffffffffffffffffffffffffffff16815260200190815260200160002060008282540192505081905550816002600083815260200190815260200160002060006101000a81548173ffffffffffffffffffffffffffffffffffffffff021916908373ffffffffffffffffffffffffffffffffffffffff160217905550808273ffffffffffffffffffffffffffffffffffffffff16600073ffffffffffffffffffffffffffffffffffffffff167fddf252ad1be2c89b69c2b068fc378daa952ba7f163c4a11628f55a4df523b3ef60405160405180910390a46126546000838360016122ae565b5050565b6000808273ffffffffffffffffffffffffffffffffffffffff163b119050919050565b600081519050919050565b600082825260208201905092915050565b6000819050602082019050919050565b6000819050919050565b6126ba816126a7565b82525050565b60006126cc83836126b1565b60208301905092915050565b6000602082019050919050565b60006126f08261267b565b6126fa8185612686565b935061270583612697565b8060005b8381101561273657815161271d88826126c0565b9750612728836126d8565b925050600181019050612709565b5085935050505092915050565b6000602082019050818103600083015261275d81846126e5565b905092915050565b6000604051905090565b600080fd5b600080fd5b60007fffffffff0000000000000000000000000000000000000000000000000000000082169050919050565b6127ae81612779565b81146127b957600080fd5b50565b6000813590506127cb816127a5565b92915050565b6000602082840312156127e7576127e661276f565b5b60006127f5848285016127bc565b91505092915050565b60008115159050919050565b612813816127fe565b82525050565b600060208201905061282e600083018461280a565b92915050565b600080fd5b600080fd5b6000601f19601f8301169050919050565b7f4e487b7100000000000000000000000000000000000000000000000000000000600052604160045260246000fd5b6128878261283e565b810181811067ffffffffffffffff821117156128a6576128a561284f565b5b80604052505050565b60006128b9612765565b90506128c5828261287e565b919050565b600067ffffffffffffffff8211156128e5576128e461284f565b5b6128ee8261283e565b9050602081019050919050565b82818337600083830152505050565b600061291d612918846128ca565b6128af565b90508281526020810184848401111561293957612938612839565b5b6129448482856128fb565b509392505050565b600082601f83011261296157612960612834565b5b813561297184826020860161290a565b91505092915050565b612983816126a7565b811461298e57600080fd5b50565b6000813590506129a08161297a565b92915050565b600080604083850312156129bd576129bc61276f565b5b600083013567ffffffffffffffff8111156129db576129da612774565b5b6129e78582860161294c565b92505060206129f885828601612991565b9150509250929050565b612a0b816126a7565b82525050565b6000602082019050612a266000830184612a02565b92915050565b600081519050919050565b600082825260208201905092915050565b60005b83811015612a66578082015181840152602081019050612a4b565b60008484015250505050565b6000612a7d82612a2c565b612a878185612a37565b9350612a97818560208601612a48565b612aa08161283e565b840191505092915050565b60006020820190508181036000830152612ac58184612a72565b905092915050565b600060208284031215612ae357612ae261276f565b5b6000612af184828501612991565b91505092915050565b600073ffffffffffffffffffffffffffffffffffffffff82169050919050565b6000612b2582612afa565b9050919050565b612b3581612b1a565b82525050565b6000602082019050612b506000830184612b2c565b92915050565b612b5f81612b1a565b8114612b6a57600080fd5b50565b600081359050612b7c81612b56565b92915050565b60008060408385031215612b9957612b9861276f565b5b6000612ba785828601612b6d565b9250506020612bb885828601612991565b9150509250929050565b6000604082019050612bd76000830185612a02565b612be46020830184612b2c565b9392505050565b600080600060608486031215612c0457612c0361276f565b5b6000612c1286828701612b6d565b9350506020612c2386828701612b6d565b9250506040612c3486828701612991565b9150509250925092565b600060208284031215612c5457612c5361276f565b5b6000612c6284828501612b6d565b91505092915050565b60008060408385031215612c8257612c8161276f565b5b6000612c9085828601612991565b9250506020612ca185828601612991565b9150509250929050565b612cb4816127fe565b8114612cbf57600080fd5b50565b600081359050612cd181612cab565b92915050565b60008060408385031215612cee57612ced61276f565b5b6000612cfc85828601612b6d565b9250506020612d0d85828601612cc2565b9150509250929050565b600067ffffffffffffffff821115612d3257612d3161284f565b5b612d3b8261283e565b9050602081019050919050565b6000612d5b612d5684612d17565b6128af565b905082815260208101848484011115612d7757612d76612839565b5b612d828482856128fb565b509392505050565b600082601f830112612d9f57612d9e612834565b5b8135612daf848260208601612d48565b91505092915050565b60008060008060808587031215612dd257612dd161276f565b5b6000612de087828801612b6d565b9450506020612df187828801612b6d565b9350506040612e0287828801612991565b925050606085013567ffffffffffffffff811115612e2357612e22612774565b5b612e2f87828801612d8a565b91505092959194509250565b60008060408385031215612e5257612e5161276f565b5b6000612e6085828601612b6d565b9250506020612e7185828601612b6d565b9150509250929050565b7f4e487b7100000000000000000000000000000000000000000000000000000000600052601160045260246000fd5b6000612eb5826126a7565b91507fffffffffffffffffffffffffffffffffffffffffffffffffffffffffffffffff8203612ee757612ee6612e7b565b5b600182019050919050565b7f4e487b7100000000000000000000000000000000000000000000000000000000600052603260045260246000fd5b7f526f79616c7479206d757374206265206265747765656e203020616e6420313060008201527f3000000000000000000000000000000000000000000000000000000000000000602082015250565b6000612f7d602183612a37565b9150612f8882612f21565b604082019050919050565b60006020820190508181036000830152612fac81612f70565b9050919050565b7f4e487b7100000000000000000000000000000000000000000000000000000000600052602260045260246000fd5b60006002820490506001821680612ffa57607f821691505b60208210810361300d5761300c612fb3565b5b50919050565b7f4552433732313a20617070726f76616c20746f2063757272656e74206f776e6560008201527f7200000000000000000000000000000000000000000000000000000000000000602082015250565b600061306f602183612a37565b915061307a82613013565b604082019050919050565b6000602082019050818103600083015261309e81613062565b9050919050565b7f4552433732313a20617070726f76652063616c6c6572206973206e6f7420746f60008201527f6b656e206f776e6572206f7220617070726f76656420666f7220616c6c000000602082015250565b6000613101603d83612a37565b915061310c826130a5565b604082019050919050565b60006020820190508181036000830152613130816130f4565b9050919050565b7f4552433732313a2063616c6c6572206973206e6f7420746f6b656e206f776e6560008201527f72206f7220617070726f76656400000000000000000000000000000000000000602082015250565b6000613193602d83612a37565b915061319e82613137565b604082019050919050565b600060208201905081810360008301526131c281613186565b9050919050565b7f4e4654206e6f7420666f722073616c6500000000000000000000000000000000600082015250565b60006131ff601083612a37565b915061320a826131c9565b602082019050919050565b6000602082019050818103600083015261322e816131f2565b9050919050565b7f496e73756666696369656e74207061796d656e74000000000000000000000000600082015250565b600061326b601483612a37565b915061327682613235565b602082019050919050565b6000602082019050818103600083015261329a8161325e565b9050919050565b60006132ac826126a7565b91506132b7836126a7565b92508282026132c5816126a7565b915082820484148315176132dc576132db612e7b565b5b5092915050565b7f4e487b7100000000000000000000000000000000000000000000000000000000600052601260045260246000fd5b600061331d826126a7565b9150613328836126a7565b925082613338576133376132e3565b5b828204905092915050565b600061334e826126a7565b9150613359836126a7565b925082820390508181111561337157613370612e7b565b5b92915050565b600060808201905061338c6000830187612a02565b6133996020830186612a02565b6133a66040830185612b2c565b6133b36060830184612b2c565b95945050505050565b7f4552433732313a20696e76616c696420746f6b656e2049440000000000000000600082015250565b60006133f2601883612a37565b91506133fd826133bc565b602082019050919050565b60006020820190508181036000830152613421816133e5565b9050919050565b7f4552433732313a2061646472657373207a65726f206973206e6f74206120766160008201527f6c6964206f776e65720000000000000000000000000000000000000000000000602082015250565b6000613484602983612a37565b915061348f82613428565b604082019050919050565b600060208201905081810360008301526134b381613477565b9050919050565b7f4e465420646f6573206e6f742065786973740000000000000000000000000000600082015250565b60006134f0601283612a37565b91506134fb826134ba565b602082019050919050565b6000602082019050818103600083015261351f816134e3565b9050919050565b7f4e6f7420746865206f776e657200000000000000000000000000000000000000600082015250565b600061355c600d83612a37565b915061356782613526565b602082019050919050565b6000602082019050818103600083015261358b8161354f565b9050919050565b7f5072696365206d7573742062652067726561746572207468616e207a65726f00600082015250565b60006135c8601f83612a37565b91506135d382613592565b602082019050919050565b600060208201905081810360008301526135f7816135bb565b9050919050565b60006060820190506136136000830186612a02565b6136206020830185612a02565b61362d6040830184612b2c565b949350505050565b7f4552433732314d657461646174613a2055524920717565727920666f72206e6f60008201527f6e6578697374656e7420746f6b656e0000000000000000000000000000000000602082015250565b6000613691602f83612a37565b915061369c82613635565b604082019050919050565b600060208201905081810360008301526136c081613684565b9050919050565b7f4f776e61626c653a206e6577206f776e657220697320746865207a65726f206160008201527f6464726573730000000000000000000000000000000000000000000000000000602082015250565b6000613723602683612a37565b915061372e826136c7565b604082019050919050565b6000602082019050818103600083015261375281613716565b9050919050565b7f4552433732314d657461646174613a2055524920736574206f66206e6f6e657860008201527f697374656e7420746f6b656e0000000000000000000000000000000000000000602082015250565b60006137b5602c83612a37565b91506137c082613759565b604082019050919050565b600060208201905081810360008301526137e4816137a8565b9050919050565b60008190508160005260206000209050919050565b60006020601f8301049050919050565b600082821b905092915050565b60006008830261384d7fffffffffffffffffffffffffffffffffffffffffffffffffffffffffffffffff82613810565b6138578683613810565b95508019841693508086168417925050509392505050565b6000819050919050565b600061389461388f61388a846126a7565b61386f565b6126a7565b9050919050565b6000819050919050565b6138ae83613879565b6138c26138ba8261389b565b84845461381d565b825550505050565b600090565b6138d76138ca565b6138e28184846138a5565b505050565b5b81811015613906576138fb6000826138cf565b6001810190506138e8565b5050565b601f82111561394b5761391c816137eb565b61392584613800565b81016020851015613934578190505b61394861394085613800565b8301826138e7565b50505b505050565b600082821c905092915050565b600061396e60001984600802613950565b1980831691505092915050565b6000613987838361395d565b9150826002028217905092915050565b6139a082612a2c565b67ffffffffffffffff8111156139b9576139b861284f565b5b6139c38254612fe2565b6139ce82828561390a565b600060209050601f831160018114613a0157600084156139ef578287015190505b6139f9858261397b565b865550613a61565b601f198416613a0f866137eb565b60005b82811015613a3757848901518255600182019150602085019450602081019050613a12565b86831015613a545784890151613a50601f89168261395d565b8355505b6001600288020188555050505b505050505050565b7f4552433732313a207472616e736665722066726f6d20696e636f72726563742060008201527f6f776e6572000000000000000000000000000000000000000000000000000000602082015250565b6000613ac5602583612a37565b9150613ad082613a69565b604082019050919050565b60006020820190508181036000830152613af481613ab8565b9050919050565b7f4552433732313a207472616e7366657220746f20746865207a65726f2061646460008201527f7265737300000000000000000000000000000000000000000000000000000000602082015250565b6000613b57602483612a37565b9150613b6282613afb565b604082019050919050565b60006020820190508181036000830152613b8681613b4a565b9050919050565b7f4e487b7100000000000000000000000000000000000000000000000000000000600052603160045260246000fd5b7f4f776e61626c653a2063616c6c6572206973206e6f7420746865206f776e6572600082015250565b6000613bf2602083612a37565b9150613bfd82613bbc565b602082019050919050565b60006020820190508181036000830152613c2181613be5565b9050919050565b7f4552433732313a20617070726f766520746f2063616c6c657200000000000000600082015250565b6000613c5e601983612a37565b9150613c6982613c28565b602082019050919050565b60006020820190508181036000830152613c8d81613c51565b9050919050565b7f4552433732313a207472616e7366657220746f206e6f6e20455243373231526560008201527f63656976657220696d706c656d656e7465720000000000000000000000000000602082015250565b6000613cf0603283612a37565b9150613cfb82613c94565b604082019050919050565b60006020820190508181036000830152613d1f81613ce3565b9050919050565b600081519050919050565b600082825260208201905092915050565b6000613d4d82613d26565b613d578185613d31565b9350613d67818560208601612a48565b613d708161283e565b840191505092915050565b6000608082019050613d906000830187612b2c565b613d9d6020830186612b2c565b613daa6040830185612a02565b8181036060830152613dbc8184613d42565b905095945050505050565b600081519050613dd6816127a5565b92915050565b600060208284031215613df257613df161276f565b5b6000613e0084828501613dc7565b91505092915050565b7f4552433732313a206d696e7420746f20746865207a65726f2061646472657373600082015250565b6000613e3f602083612a37565b9150613e4a82613e09565b602082019050919050565b60006020820190508181036000830152613e6e81613e32565b9050919050565b7f4552433732313a20746f6b656e20616c7265616479206d696e74656400000000600082015250565b6000613eab601c83612a37565b9150613eb682613e75565b602082019050919050565b60006020820190508181036000830152613eda81613e9e565b905091905056fea2646970667358221220d672f88fc9f07a6aa7e21150f66d3bb4f026f7fd4824063b50b1d7c93caaa1c464736f6c634300081b0033",
  "linkReferences": {},
  "deployedLinkReferences": {}
}