{
  "_format": "hh-sol-artifact-1",
  "contractName": "MyNFTMarketplace",
  "sourceName": "contracts/NFTMarketplaceUpdated.sol",
  "abi": [
    {
      "inputs": [],
      "stateMutability": "nonpayable",
      "type": "constructor"
    },
    {
      "anonymous": false,
      "inputs": [
        {
          "indexed": true,
          "internalType": "address",
          "name": "owner",
          "type": "address"
        },
        {
          "indexed": true,
          "internalType": "address",
          "name": "approved",
          "type": "address"
        },
        {
          "indexed": true,
          "internalType": "uint256",
          "name": "tokenId",
          "type": "uint256"
        }
      ],
      "name": "Approval",
      "type": "event"
    },
    {
      "anonymous": false,
      "inputs": [
        {
          "indexed": true,
          "internalType": "address",
          "name": "owner",
          "type": "address"
        },
        {
          "indexed": true,
          "internalType": "address",
          "name": "operator",
          "type": "address"
        },
        {
          "indexed": false,
          "internalType": "bool",
          "name": "approved",
          "type": "bool"
        }
      ],
      "name": "ApprovalForAll",
      "type": "event"
    },
    {
      "anonymous": false,
      "inputs": [
        {
          "indexed": false,
          "internalType": "uint256",
          "name": "tokenId",
          "type": "uint256"
        },
        {
          "indexed": false,
          "internalType": "uint256",
          "name": "price",
          "type": "uint256"
        },
        {
          "indexed": false,
          "internalType": "address",
          "name": "seller",
          "type": "address"
        }
      ],
      "name": "NFTListed",
      "type": "event"
    },
    {
      "anonymous": false,
      "inputs": [
        {
          "indexed": false,
          "internalType": "uint256",
          "name": "tokenId",
          "type": "uint256"
        },
        {
          "indexed": false,
          "internalType": "uint256",
          "name": "price",
          "type": "uint256"
        },
        {
          "indexed": false,
          "internalType": "address",
          "name": "seller",
          "type": "address"
        },
        {
          "indexed": false,
          "internalType": "address",
          "name": "buyer",
          "type": "address"
        }
      ],
      "name": "NFTSold",
      "type": "event"
    },
    {
      "anonymous": false,
      "inputs": [
        {
          "indexed": true,
          "internalType": "address",
          "name": "previousOwner",
          "type": "address"
        },
        {
          "indexed": true,
          "internalType": "address",
          "name": "newOwner",
          "type": "address"
        }
      ],
      "name": "OwnershipTransferred",
      "type": "event"
    },
    {
      "anonymous": false,
      "inputs": [
        {
          "indexed": true,
          "internalType": "address",
          "name": "from",
          "type": "address"
        },
        {
          "indexed": true,
          "internalType": "address",
          "name": "to",
          "type": "address"
        },
        {
          "indexed": true,
          "internalType": "uint256",
          "name": "tokenId",
          "type": "uint256"
        }
      ],
      "name": "Transfer",
      "type": "event"
    },
    {
      "inputs": [
        {
          "internalType": "address",
          "name": "to",
          "type": "address"
        },
        {
          "internalType": "uint256",
          "name": "tokenId",
          "type": "uint256"
        }
      ],
      "name": "approve",
      "outputs": [],
      "stateMutability": "nonpayable",
      "type": "function"
    },
    {
      "inputs": [
        {
          "internalType": "address",
          "name": "owner",
          "type": "address"
        }
      ],
      "name": "balanceOf",
      "outputs": [
        {
          "internalType": "uint256",
          "name": "",
          "type": "uint256"
        }
      ],
      "stateMutability": "view",
      "type": "function"
    },
    {
      "inputs": [
        {
          "internalType": "uint256",
          "name": "tokenId",
          "type": "uint256"
        }
      ],
      "name": "buyNFT",
      "outputs": [],
      "stateMutability": "payable",
      "type": "function"
    },
    {
      "inputs": [
        {
          "internalType": "uint256",
          "name": "tokenId",
          "type": "uint256"
        }
      ],
      "name": "getApproved",
      "outputs": [
        {
          "internalType": "address",
          "name": "",
          "type": "address"
        }
      ],
      "stateMutability": "view",
      "type": "function"
    },
    {
      "inputs": [
        {
          "internalType": "uint256",
          "name": "tokenId",
          "type": "uint256"
        }
      ],
      "name": "getCreator",
      "outputs": [
        {
          "internalType": "address",
          "name": "",
          "type": "address"
        }
      ],
      "stateMutability": "view",
      "type": "function"
    },
    {
      "inputs": [],
      "name": "getListedNFTs",
      "outputs": [
        {
          "internalType": "uint256[]",
          "name": "",
          "type": "uint256[]"
        }
      ],
      "stateMutability": "view",
      "type": "function"
    },
    {
      "inputs": [
        {
          "internalType": "uint256",
          "name": "tokenId",
          "type": "uint256"
        }
      ],
      "name": "getNFTListing",
      "outputs": [
        {
          "internalType": "uint256",
          "name": "price",
          "type": "uint256"
        },
        {
          "internalType": "address",
          "name": "seller",
          "type": "address"
        }
      ],
      "stateMutability": "view",
      "type": "function"
    },
    {
      "inputs": [
        {
          "internalType": "address",
          "name": "owner",
          "type": "address"
        }
      ],
      "name": "getOwnedTokens",
      "outputs": [
        {
          "internalType": "uint256[]",
          "name": "",
          "type": "uint256[]"
        }
      ],
      "stateMutability": "view",
      "type": "function"
    },
    {
      "inputs": [
        {
          "internalType": "uint256",
          "name": "tokenId",
          "type": "uint256"
        }
      ],
      "name": "getRoyalty",
      "outputs": [
        {
          "internalType": "uint256",
          "name": "",
          "type": "uint256"
        }
      ],
      "stateMutability": "view",
      "type": "function"
    },
    {
      "inputs": [
        {
          "internalType": "address",
          "name": "owner",
          "type": "address"
        }
      ],
      "name": "getUnlistedMintedNFTs",
      "outputs": [
        {
          "internalType": "uint256[]",
          "name": "",
          "type": "uint256[]"
        }
      ],
      "stateMutability": "view",
      "type": "function"
    },
    {
      "inputs": [
        {
          "internalType": "address",
          "name": "owner",
          "type": "address"
        },
        {
          "internalType": "address",
          "name": "operator",
          "type": "address"
        }
      ],
      "name": "isApprovedForAll",
      "outputs": [
        {
          "internalType": "bool",
          "name": "",
          "type": "bool"
        }
      ],
      "stateMutability": "view",
      "type": "function"
    },
    {
      "inputs": [
        {
          "internalType": "uint256",
          "name": "tokenId",
          "type": "uint256"
        },
        {
          "internalType": "uint256",
          "name": "price",
          "type": "uint256"
        }
      ],
      "name": "listNFT",
      "outputs": [],
      "stateMutability": "nonpayable",
      "type": "function"
    },
    {
      "inputs": [
        {
          "internalType": "string",
          "name": "_tokenURI",
          "type": "string"
        },
        {
          "internalType": "uint256",
          "name": "royalty",
          "type": "uint256"
        }
      ],
      "name": "mint",
      "outputs": [
        {
          "internalType": "uint256",
          "name": "",
          "type": "uint256"
        }
      ],
      "stateMutability": "nonpayable",
      "type": "function"
    },
    {
      "inputs": [],
      "name": "name",
      "outputs": [
        {
          "internalType": "string",
          "name": "",
          "type": "string"
        }
      ],
      "stateMutability": "view",
      "type": "function"
    },
    {
      "inputs": [],
      "name": "owner",
      "outputs": [
        {
          "internalType": "address",
          "name": "",
          "type": "address"
        }
      ],
      "stateMutability": "view",
      "type": "function"
    },
    {
      "inputs": [
        {
          "internalType": "uint256",
          "name": "tokenId",
          "type": "uint256"
        }
      ],
      "name": "ownerOf",
      "outputs": [
        {
          "internalType": "address",
          "name": "",
          "type": "address"
        }
      ],
      "stateMutability": "view",
      "type": "function"
    },
    {
      "inputs": [],
      "name": "renounceOwnership",
      "outputs": [],
      "stateMutability": "nonpayable",
      "type": "function"
    },
    {
      "inputs": [
        {
          "internalType": "address",
          "name": "from",
          "type": "address"
        },
        {
          "internalType": "address",
          "name": "to",
          "type": "address"
        },
        {
          "internalType": "uint256",
          "name": "tokenId",
          "type": "uint256"
        }
      ],
      "name": "safeTransferFrom",
      "outputs": [],
      "stateMutability": "nonpayable",
      "type": "function"
    },
    {
      "inputs": [
        {
          "internalType": "address",
          "name": "from",
          "type": "address"
        },
        {
          "internalType": "address",
          "name": "to",
          "type": "address"
        },
        {
          "internalType": "uint256",
          "name": "tokenId",
          "type": "uint256"
        },
        {
          "internalType": "bytes",
          "name": "data",
          "type": "bytes"
        }
      ],
      "name": "safeTransferFrom",
      "outputs": [],
      "stateMutability": "nonpayable",
      "type": "function"
    },
    {
      "inputs": [
        {
          "internalType": "address",
          "name": "operator",
          "type": "address"
        },
        {
          "internalType": "bool",
          "name": "approved",
          "type": "bool"
        }
      ],
      "name": "setApprovalForAll",
      "outputs": [],
      "stateMutability": "nonpayable",
      "type": "function"
    },
    {
      "inputs": [
        {
          "internalType": "bytes4",
          "name": "interfaceId",
          "type": "bytes4"
        }
      ],
      "name": "supportsInterface",
      "outputs": [
        {
          "internalType": "bool",
          "name": "",
          "type": "bool"
        }
      ],
      "stateMutability": "view",
      "type": "function"
    },
    {
      "inputs": [],
      "name": "symbol",
      "outputs": [
        {
          "internalType": "string",
          "name": "",
          "type": "string"
        }
      ],
      "stateMutability": "view",
      "type": "function"
    },
    {
      "inputs": [
        {
          "internalType": "uint256",
          "name": "tokenId",
          "type": "uint256"
        }
      ],
      "name": "tokenURI",
      "outputs": [
        {
          "internalType": "string",
          "name": "",
          "type": "string"
        }
      ],
      "stateMutability": "view",
      "type": "function"
    },
    {
      "inputs": [
        {
          "internalType": "address",
          "name": "from",
          "type": "address"
        },
        {
          "internalType": "address",
          "name": "to",
          "type": "address"
        },
        {
          "internalType": "uint256",
          "name": "tokenId",
          "type": "uint256"
        }
      ],
      "name": "transferFrom",
      "outputs": [],
      "stateMutability": "nonpayable",
      "type": "function"
    },
    {
      "inputs": [
        {
          "internalType": "address",
          "name": "newOwner",
          "type": "address"
        }
      ],
      "name": "transferOwnership",
      "outputs": [],
      "stateMutability": "nonpayable",
      "type": "function"
    }
  ],
  "bytecode": "0x608060405234801561001057600080fd5b506040518060400160405280600581526020017f4d794e46540000000000000000000000000000000000000000000000000000008152506040518060400160405280600481526020017f4d4e465400000000000000000000000000000000000000000000000000000000815250816000908161008c91906103de565b50806001908161009c91906103de565b5050506100bb6100b06100c060201b60201c565b6100c860201b60201c565b6104b0565b600033905090565b6000600660009054906101000a900473ffffffffffffffffffffffffffffffffffffffff16905081600660006101000a81548173ffffffffffffffffffffffffffffffffffffffff021916908373ffffffffffffffffffffffffffffffffffffffff1602179055508173ffffffffffffffffffffffffffffffffffffffff168173ffffffffffffffffffffffffffffffffffffffff167f8be0079c531659141344cd1fd0a4f28419497f9722a3daafe3b4186f6b6457e060405160405180910390a35050565b600081519050919050565b7f4e487b7100000000000000000000000000000000000000000000000000000000600052604160045260246000fd5b7f4e487b7100000000000000000000000000000000000000000000000000000000600052602260045260246000fd5b6000600282049050600182168061020f57607f821691505b602082108103610222576102216101c8565b5b50919050565b60008190508160005260206000209050919050565b60006020601f8301049050919050565b600082821b905092915050565b60006008830261028a7fffffffffffffffffffffffffffffffffffffffffffffffffffffffffffffffff8261024d565b610294868361024d565b95508019841693508086168417925050509392505050565b6000819050919050565b6000819050919050565b60006102db6102d66102d1846102ac565b6102b6565b6102ac565b9050919050565b6000819050919050565b6102f5836102c0565b610309610301826102e2565b84845461025a565b825550505050565b600090565b61031e610311565b6103298184846102ec565b505050565b5b8181101561034d57610342600082610316565b60018101905061032f565b5050565b601f8211156103925761036381610228565b61036c8461023d565b8101602085101561037b578190505b61038f6103878561023d565b83018261032e565b50505b505050565b600082821c905092915050565b60006103b560001984600802610397565b1980831691505092915050565b60006103ce83836103a4565b9150826002028217905092915050565b6103e78261018e565b67ffffffffffffffff811115610400576103ff610199565b5b61040a82546101f7565b610415828285610351565b600060209050601f8311600181146104485760008415610436578287015190505b61044085826103c2565b8655506104a8565b601f19841661045686610228565b60005b8281101561047e57848901518255600182019150602085019450602081019050610459565b8683101561049b5784890151610497601f8916826103a4565b8355505b6001600288020188555050505b505050505050565b61415a806104bf6000396000f3fe6080604052600436106101665760003560e01c806370a08231116100d1578063aabd4a7a1161008a578063d48e638a11610064578063d48e638a14610566578063d9d61655146105a3578063e985e9c5146105e0578063f2fde38b1461061d57610166565b8063aabd4a7a146104c3578063b88d4fde14610500578063c87b56dd1461052957610166565b806370a08231146103c7578063715018a6146104045780638da5cb5b1461041b57806394383f141461044657806395d89b411461046f578063a22cb4651461049a57610166565b80630ea59c4b116101235780630ea59c4b146102a15780631af9cf49146102df57806323b872dd1461031c57806342842e0e1461034557806351ed82881461036e5780636352211e1461038a57610166565b8063012386f01461016b57806301ffc9a714610196578063056b01ce146101d357806306fdde0314610210578063081812fc1461023b578063095ea7b314610278575b600080fd5b34801561017757600080fd5b50610180610646565b60405161018d9190612986565b60405180910390f35b3480156101a257600080fd5b506101bd60048036038101906101b89190612a14565b610772565b6040516101ca9190612a5c565b60405180910390f35b3480156101df57600080fd5b506101fa60048036038101906101f59190612be9565b610854565b6040516102079190612c54565b60405180910390f35b34801561021c57600080fd5b506102256109a0565b6040516102329190612cee565b60405180910390f35b34801561024757600080fd5b50610262600480360381019061025d9190612d10565b610a32565b60405161026f9190612d7e565b60405180910390f35b34801561028457600080fd5b5061029f600480360381019061029a9190612dc5565b610a78565b005b3480156102ad57600080fd5b506102c860048036038101906102c39190612d10565b610b8f565b6040516102d6929190612e05565b60405180910390f35b3480156102eb57600080fd5b5061030660048036038101906103019190612d10565b610c28565b6040516103139190612c54565b60405180910390f35b34801561032857600080fd5b50610343600480360381019061033e9190612e2e565b610c45565b005b34801561035157600080fd5b5061036c60048036038101906103679190612e2e565b610ca5565b005b61038860048036038101906103839190612d10565b610cc5565b005b34801561039657600080fd5b506103b160048036038101906103ac9190612d10565b611041565b6040516103be9190612d7e565b60405180910390f35b3480156103d357600080fd5b506103ee60048036038101906103e99190612e81565b6110c7565b6040516103fb9190612c54565b60405180910390f35b34801561041057600080fd5b5061041961117e565b005b34801561042757600080fd5b50610430611192565b60405161043d9190612d7e565b60405180910390f35b34801561045257600080fd5b5061046d60048036038101906104689190612eae565b6111bc565b005b34801561047b57600080fd5b5061048461138e565b6040516104919190612cee565b60405180910390f35b3480156104a657600080fd5b506104c160048036038101906104bc9190612f1a565b611420565b005b3480156104cf57600080fd5b506104ea60048036038101906104e59190612e81565b611436565b6040516104f79190612986565b60405180910390f35b34801561050c57600080fd5b5061052760048036038101906105229190612ffb565b611621565b005b34801561053557600080fd5b50610550600480360381019061054b9190612d10565b611683565b60405161055d9190612cee565b60405180910390f35b34801561057257600080fd5b5061058d60048036038101906105889190612d10565b611770565b60405161059a9190612d7e565b60405180910390f35b3480156105af57600080fd5b506105ca60048036038101906105c59190612e81565b6117ad565b6040516105d79190612986565b60405180910390f35b3480156105ec57600080fd5b506106076004803603810190610602919061307e565b611844565b6040516106149190612a5c565b60405180910390f35b34801561062957600080fd5b50610644600480360381019061063f9190612e81565b6118d8565b005b6060600080600190505b61065a600761195b565b81116106a15760006009600083815260200190815260200160002060000154111561068e57818061068a906130ed565b9250505b8080610699906130ed565b915050610650565b5060008167ffffffffffffffff8111156106be576106bd612a92565b5b6040519080825280602002602001820160405280156106ec5781602001602082028036833780820191505090505b509050600080600190505b610701600761195b565b811161076857600060096000838152602001908152602001600020600001541115610755578083838151811061073a57610739613135565b5b6020026020010181815250508180610751906130ed565b9250505b8080610760906130ed565b9150506106f7565b5081935050505090565b60007f80ac58cd000000000000000000000000000000000000000000000000000000007bffffffffffffffffffffffffffffffffffffffffffffffffffffffff1916827bffffffffffffffffffffffffffffffffffffffffffffffffffffffff1916148061083d57507f5b5e139f000000000000000000000000000000000000000000000000000000007bffffffffffffffffffffffffffffffffffffffffffffffffffffffff1916827bffffffffffffffffffffffffffffffffffffffffffffffffffffffff1916145b8061084d575061084c82611969565b5b9050919050565b6000606482111561089a576040517f08c379a0000000000000000000000000000000000000000000000000000000008152600401610891906131d6565b60405180910390fd5b6108a460076119d3565b60006108b0600761195b565b90506108bc33826119e9565b6108c68185611a07565b33600a600083815260200190815260200160002060006101000a81548173ffffffffffffffffffffffffffffffffffffffff021916908373ffffffffffffffffffffffffffffffffffffffff16021790555082600b600083815260200190815260200160002081905550600c60003373ffffffffffffffffffffffffffffffffffffffff1673ffffffffffffffffffffffffffffffffffffffff1681526020019081526020016000208190806001815401808255809150506001900390600052602060002001600090919091909150558091505092915050565b6060600080546109af90613225565b80601f01602080910402602001604051908101604052809291908181526020018280546109db90613225565b8015610a285780601f106109fd57610100808354040283529160200191610a28565b820191906000526020600020905b815481529060010190602001808311610a0b57829003601f168201915b5050505050905090565b6000610a3d82611a74565b6004600083815260200190815260200160002060009054906101000a900473ffffffffffffffffffffffffffffffffffffffff169050919050565b6000610a8382611041565b90508073ffffffffffffffffffffffffffffffffffffffff168373ffffffffffffffffffffffffffffffffffffffff1603610af3576040517f08c379a0000000000000000000000000000000000000000000000000000000008152600401610aea906132c8565b60405180910390fd5b8073ffffffffffffffffffffffffffffffffffffffff16610b12611abf565b73ffffffffffffffffffffffffffffffffffffffff161480610b415750610b4081610b3b611abf565b611844565b5b610b80576040517f08c379a0000000000000000000000000000000000000000000000000000000008152600401610b779061335a565b60405180910390fd5b610b8a8383611ac7565b505050565b600080600060096000858152602001908152602001600020604051806040016040529081600082015481526020016001820160009054906101000a900473ffffffffffffffffffffffffffffffffffffffff1673ffffffffffffffffffffffffffffffffffffffff1673ffffffffffffffffffffffffffffffffffffffff16815250509050806000015181602001519250925050915091565b6000600b6000838152602001908152602001600020549050919050565b610c56610c50611abf565b82611b80565b610c95576040517f08c379a0000000000000000000000000000000000000000000000000000000008152600401610c8c906133ec565b60405180910390fd5b610ca0838383611c15565b505050565b610cc083838360405180602001604052806000815250611621565b505050565b600060096000838152602001908152602001600020604051806040016040529081600082015481526020016001820160009054906101000a900473ffffffffffffffffffffffffffffffffffffffff1673ffffffffffffffffffffffffffffffffffffffff1673ffffffffffffffffffffffffffffffffffffffff168152505090506000816000015111610d8e576040517f08c379a0000000000000000000000000000000000000000000000000000000008152600401610d8590613458565b60405180910390fd5b8060000151341015610dd5576040517f08c379a0000000000000000000000000000000000000000000000000000000008152600401610dcc906134c4565b60405180910390fd5b60008160200151905060008260000151905060006064600b60008781526020019081526020016000205483610e0a91906134e4565b610e149190613555565b90508273ffffffffffffffffffffffffffffffffffffffff166108fc8284610e3c9190613586565b9081150290604051600060405180830381858888f19350505050158015610e67573d6000803e3d6000fd5b50600a600086815260200190815260200160002060009054906101000a900473ffffffffffffffffffffffffffffffffffffffff1673ffffffffffffffffffffffffffffffffffffffff166108fc829081150290604051600060405180830381858888f19350505050158015610ee1573d6000803e3d6000fd5b50600960008681526020019081526020016000206000808201600090556001820160006101000a81549073ffffffffffffffffffffffffffffffffffffffff02191690555050610f318386611f0e565b600c60003373ffffffffffffffffffffffffffffffffffffffff1673ffffffffffffffffffffffffffffffffffffffff168152602001908152602001600020859080600181540180825580915050600190039060005260206000200160009091909190915055610fa2833387611c15565b7f2820044bbebd591ee7d08b7d81dd01945a1a32706da693a946e532d6d988425885838533604051610fd794939291906135ba565b60405180910390a18134111561103a573373ffffffffffffffffffffffffffffffffffffffff166108fc833461100d9190613586565b9081150290604051600060405180830381858888f19350505050158015611038573d6000803e3d6000fd5b505b5050505050565b60008061104d83612106565b9050600073ffffffffffffffffffffffffffffffffffffffff168173ffffffffffffffffffffffffffffffffffffffff16036110be576040517f08c379a00000000000000000000000000000000000000000000000000000000081526004016110b59061364b565b60405180910390fd5b80915050919050565b60008073ffffffffffffffffffffffffffffffffffffffff168273ffffffffffffffffffffffffffffffffffffffff1603611137576040517f08c379a000000000000000000000000000000000000000000000000000000000815260040161112e906136dd565b60405180910390fd5b600360008373ffffffffffffffffffffffffffffffffffffffff1673ffffffffffffffffffffffffffffffffffffffff168152602001908152602001600020549050919050565b611186612143565b61119060006121c1565b565b6000600660009054906101000a900473ffffffffffffffffffffffffffffffffffffffff16905090565b6111c582612287565b611204576040517f08c379a00000000000000000000000000000000000000000000000000000000081526004016111fb90613749565b60405180910390fd5b3373ffffffffffffffffffffffffffffffffffffffff1661122483611041565b73ffffffffffffffffffffffffffffffffffffffff161461127a576040517f08c379a0000000000000000000000000000000000000000000000000000000008152600401611271906137b5565b60405180910390fd5b600081116112bd576040517f08c379a00000000000000000000000000000000000000000000000000000000081526004016112b490613821565b60405180910390fd5b60405180604001604052808281526020013373ffffffffffffffffffffffffffffffffffffffff16815250600960008481526020019081526020016000206000820151816000015560208201518160010160006101000a81548173ffffffffffffffffffffffffffffffffffffffff021916908373ffffffffffffffffffffffffffffffffffffffff1602179055509050507fd2ab19646d6f9fdd37206f962b4ebaab8a4a23ad87f7695e7e1736803cb8bf7482823360405161138293929190613841565b60405180910390a15050565b60606001805461139d90613225565b80601f01602080910402602001604051908101604052809291908181526020018280546113c990613225565b80156114165780601f106113eb57610100808354040283529160200191611416565b820191906000526020600020905b8154815290600101906020018083116113f957829003601f168201915b5050505050905090565b61143261142b611abf565b83836122c8565b5050565b60606000600c60008473ffffffffffffffffffffffffffffffffffffffff1673ffffffffffffffffffffffffffffffffffffffff1681526020019081526020016000208054806020026020016040519081016040528092919081815260200182805480156114c357602002820191906000526020600020905b8154815260200190600101908083116114af575b505050505090506000805b825181101561152b576000600960008584815181106114f0576114ef613135565b5b60200260200101518152602001908152602001600020600001540361151e57818061151a906130ed565b9250505b80806001019150506114ce565b5060008167ffffffffffffffff81111561154857611547612a92565b5b6040519080825280602002602001820160405280156115765781602001602082028036833780820191505090505b5090506000805b84518110156116145760006009600087848151811061159f5761159e613135565b5b602002602001015181526020019081526020016000206000015403611607578481815181106115d1576115d0613135565b5b60200260200101518383815181106115ec576115eb613135565b5b6020026020010181815250508180611603906130ed565b9250505b808060010191505061157d565b5081945050505050919050565b61163261162c611abf565b83611b80565b611671576040517f08c379a0000000000000000000000000000000000000000000000000000000008152600401611668906133ec565b60405180910390fd5b61167d84848484612434565b50505050565b606061168e82612287565b6116cd576040517f08c379a00000000000000000000000000000000000000000000000000000000081526004016116c4906138ea565b60405180910390fd5b6008600083815260200190815260200160002080546116eb90613225565b80601f016020809104026020016040519081016040528092919081815260200182805461171790613225565b80156117645780601f1061173957610100808354040283529160200191611764565b820191906000526020600020905b81548152906001019060200180831161174757829003601f168201915b50505050509050919050565b6000600a600083815260200190815260200160002060009054906101000a900473ffffffffffffffffffffffffffffffffffffffff169050919050565b6060600c60008373ffffffffffffffffffffffffffffffffffffffff1673ffffffffffffffffffffffffffffffffffffffff16815260200190815260200160002080548060200260200160405190810160405280929190818152602001828054801561183857602002820191906000526020600020905b815481526020019060010190808311611824575b50505050509050919050565b6000600560008473ffffffffffffffffffffffffffffffffffffffff1673ffffffffffffffffffffffffffffffffffffffff16815260200190815260200160002060008373ffffffffffffffffffffffffffffffffffffffff1673ffffffffffffffffffffffffffffffffffffffff16815260200190815260200160002060009054906101000a900460ff16905092915050565b6118e0612143565b600073ffffffffffffffffffffffffffffffffffffffff168173ffffffffffffffffffffffffffffffffffffffff160361194f576040517f08c379a00000000000000000000000000000000000000000000000000000000081526004016119469061397c565b60405180910390fd5b611958816121c1565b50565b600081600001549050919050565b60007f01ffc9a7000000000000000000000000000000000000000000000000000000007bffffffffffffffffffffffffffffffffffffffffffffffffffffffff1916827bffffffffffffffffffffffffffffffffffffffffffffffffffffffff1916149050919050565b6001816000016000828254019250508190555050565b611a03828260405180602001604052806000815250612490565b5050565b611a1082612287565b611a4f576040517f08c379a0000000000000000000000000000000000000000000000000000000008152600401611a4690613a0e565b60405180910390fd5b80600860008481526020019081526020016000209081611a6f9190613bda565b505050565b611a7d81612287565b611abc576040517f08c379a0000000000000000000000000000000000000000000000000000000008152600401611ab39061364b565b60405180910390fd5b50565b600033905090565b816004600083815260200190815260200160002060006101000a81548173ffffffffffffffffffffffffffffffffffffffff021916908373ffffffffffffffffffffffffffffffffffffffff160217905550808273ffffffffffffffffffffffffffffffffffffffff16611b3a83611041565b73ffffffffffffffffffffffffffffffffffffffff167f8c5be1e5ebec7d5bd14f71427d1e84f3dd0314c0f7b2291e5b200ac8c7c3b92560405160405180910390a45050565b600080611b8c83611041565b90508073ffffffffffffffffffffffffffffffffffffffff168473ffffffffffffffffffffffffffffffffffffffff161480611bce5750611bcd8185611844565b5b80611c0c57508373ffffffffffffffffffffffffffffffffffffffff16611bf484610a32565b73ffffffffffffffffffffffffffffffffffffffff16145b91505092915050565b8273ffffffffffffffffffffffffffffffffffffffff16611c3582611041565b73ffffffffffffffffffffffffffffffffffffffff1614611c8b576040517f08c379a0000000000000000000000000000000000000000000000000000000008152600401611c8290613d1e565b60405180910390fd5b600073ffffffffffffffffffffffffffffffffffffffff168273ffffffffffffffffffffffffffffffffffffffff1603611cfa576040517f08c379a0000000000000000000000000000000000000000000000000000000008152600401611cf190613db0565b60405180910390fd5b611d0783838360016124eb565b8273ffffffffffffffffffffffffffffffffffffffff16611d2782611041565b73ffffffffffffffffffffffffffffffffffffffff1614611d7d576040517f08c379a0000000000000000000000000000000000000000000000000000000008152600401611d7490613d1e565b60405180910390fd5b6004600082815260200190815260200160002060006101000a81549073ffffffffffffffffffffffffffffffffffffffff02191690556001600360008573ffffffffffffffffffffffffffffffffffffffff1673ffffffffffffffffffffffffffffffffffffffff168152602001908152602001600020600082825403925050819055506001600360008473ffffffffffffffffffffffffffffffffffffffff1673ffffffffffffffffffffffffffffffffffffffff16815260200190815260200160002060008282540192505081905550816002600083815260200190815260200160002060006101000a81548173ffffffffffffffffffffffffffffffffffffffff021916908373ffffffffffffffffffffffffffffffffffffffff160217905550808273ffffffffffffffffffffffffffffffffffffffff168473ffffffffffffffffffffffffffffffffffffffff167fddf252ad1be2c89b69c2b068fc378daa952ba7f163c4a11628f55a4df523b3ef60405160405180910390a4611f0983838360016124f1565b505050565b6000600c60008473ffffffffffffffffffffffffffffffffffffffff1673ffffffffffffffffffffffffffffffffffffffff16815260200190815260200160002080549050905060005b818110156121005782600c60008673ffffffffffffffffffffffffffffffffffffffff1673ffffffffffffffffffffffffffffffffffffffff1681526020019081526020016000208281548110611fb257611fb1613135565b5b9060005260206000200154036120f357600c60008573ffffffffffffffffffffffffffffffffffffffff1673ffffffffffffffffffffffffffffffffffffffff16815260200190815260200160002060018361200e9190613586565b8154811061201f5761201e613135565b5b9060005260206000200154600c60008673ffffffffffffffffffffffffffffffffffffffff1673ffffffffffffffffffffffffffffffffffffffff168152602001908152602001600020828154811061207b5761207a613135565b5b9060005260206000200181905550600c60008573ffffffffffffffffffffffffffffffffffffffff1673ffffffffffffffffffffffffffffffffffffffff1681526020019081526020016000208054806120d8576120d7613dd0565b5b60019003818190600052602060002001600090559055612100565b8080600101915050611f58565b50505050565b60006002600083815260200190815260200160002060009054906101000a900473ffffffffffffffffffffffffffffffffffffffff169050919050565b61214b611abf565b73ffffffffffffffffffffffffffffffffffffffff16612169611192565b73ffffffffffffffffffffffffffffffffffffffff16146121bf576040517f08c379a00000000000000000000000000000000000000000000000000000000081526004016121b690613e4b565b60405180910390fd5b565b6000600660009054906101000a900473ffffffffffffffffffffffffffffffffffffffff16905081600660006101000a81548173ffffffffffffffffffffffffffffffffffffffff021916908373ffffffffffffffffffffffffffffffffffffffff1602179055508173ffffffffffffffffffffffffffffffffffffffff168173ffffffffffffffffffffffffffffffffffffffff167f8be0079c531659141344cd1fd0a4f28419497f9722a3daafe3b4186f6b6457e060405160405180910390a35050565b60008073ffffffffffffffffffffffffffffffffffffffff166122a983612106565b73ffffffffffffffffffffffffffffffffffffffff1614159050919050565b8173ffffffffffffffffffffffffffffffffffffffff168373ffffffffffffffffffffffffffffffffffffffff1603612336576040517f08c379a000000000000000000000000000000000000000000000000000000000815260040161232d90613eb7565b60405180910390fd5b80600560008573ffffffffffffffffffffffffffffffffffffffff1673ffffffffffffffffffffffffffffffffffffffff16815260200190815260200160002060008473ffffffffffffffffffffffffffffffffffffffff1673ffffffffffffffffffffffffffffffffffffffff16815260200190815260200160002060006101000a81548160ff0219169083151502179055508173ffffffffffffffffffffffffffffffffffffffff168373ffffffffffffffffffffffffffffffffffffffff167f17307eab39ab6107e8899845ad3d59bd9653f200f220920489ca2b5937696c31836040516124279190612a5c565b60405180910390a3505050565b61243f848484611c15565b61244b848484846124f7565b61248a576040517f08c379a000000000000000000000000000000000000000000000000000000000815260040161248190613f49565b60405180910390fd5b50505050565b61249a838361267e565b6124a760008484846124f7565b6124e6576040517f08c379a00000000000000000000000000000000000000000000000000000000081526004016124dd90613f49565b60405180910390fd5b505050565b50505050565b50505050565b60006125188473ffffffffffffffffffffffffffffffffffffffff1661289b565b15612671578373ffffffffffffffffffffffffffffffffffffffff1663150b7a02612541611abf565b8786866040518563ffffffff1660e01b81526004016125639493929190613fbe565b6020604051808303816000875af192505050801561259f57506040513d601f19601f8201168201806040525081019061259c919061401f565b60015b612621573d80600081146125cf576040519150601f19603f3d011682016040523d82523d6000602084013e6125d4565b606091505b506000815103612619576040517f08c379a000000000000000000000000000000000000000000000000000000000815260040161261090613f49565b60405180910390fd5b805181602001fd5b63150b7a0260e01b7bffffffffffffffffffffffffffffffffffffffffffffffffffffffff1916817bffffffffffffffffffffffffffffffffffffffffffffffffffffffff191614915050612676565b600190505b949350505050565b600073ffffffffffffffffffffffffffffffffffffffff168273ffffffffffffffffffffffffffffffffffffffff16036126ed576040517f08c379a00000000000000000000000000000000000000000000000000000000081526004016126e490614098565b60405180910390fd5b6126f681612287565b15612736576040517f08c379a000000000000000000000000000000000000000000000000000000000815260040161272d90614104565b60405180910390fd5b6127446000838360016124eb565b61274d81612287565b1561278d576040517f08c379a000000000000000000000000000000000000000000000000000000000815260040161278490614104565b60405180910390fd5b6001600360008473ffffffffffffffffffffffffffffffffffffffff1673ffffffffffffffffffffffffffffffffffffffff16815260200190815260200160002060008282540192505081905550816002600083815260200190815260200160002060006101000a81548173ffffffffffffffffffffffffffffffffffffffff021916908373ffffffffffffffffffffffffffffffffffffffff160217905550808273ffffffffffffffffffffffffffffffffffffffff16600073ffffffffffffffffffffffffffffffffffffffff167fddf252ad1be2c89b69c2b068fc378daa952ba7f163c4a11628f55a4df523b3ef60405160405180910390a46128976000838360016124f1565b5050565b6000808273ffffffffffffffffffffffffffffffffffffffff163b119050919050565b600081519050919050565b600082825260208201905092915050565b6000819050602082019050919050565b6000819050919050565b6128fd816128ea565b82525050565b600061290f83836128f4565b60208301905092915050565b6000602082019050919050565b6000612933826128be565b61293d81856128c9565b9350612948836128da565b8060005b838110156129795781516129608882612903565b975061296b8361291b565b92505060018101905061294c565b5085935050505092915050565b600060208201905081810360008301526129a08184612928565b905092915050565b6000604051905090565b600080fd5b600080fd5b60007fffffffff0000000000000000000000000000000000000000000000000000000082169050919050565b6129f1816129bc565b81146129fc57600080fd5b50565b600081359050612a0e816129e8565b92915050565b600060208284031215612a2a57612a296129b2565b5b6000612a38848285016129ff565b91505092915050565b60008115159050919050565b612a5681612a41565b82525050565b6000602082019050612a716000830184612a4d565b92915050565b600080fd5b600080fd5b6000601f19601f8301169050919050565b7f4e487b7100000000000000000000000000000000000000000000000000000000600052604160045260246000fd5b612aca82612a81565b810181811067ffffffffffffffff82111715612ae957612ae8612a92565b5b80604052505050565b6000612afc6129a8565b9050612b088282612ac1565b919050565b600067ffffffffffffffff821115612b2857612b27612a92565b5b612b3182612a81565b9050602081019050919050565b82818337600083830152505050565b6000612b60612b5b84612b0d565b612af2565b905082815260208101848484011115612b7c57612b7b612a7c565b5b612b87848285612b3e565b509392505050565b600082601f830112612ba457612ba3612a77565b5b8135612bb4848260208601612b4d565b91505092915050565b612bc6816128ea565b8114612bd157600080fd5b50565b600081359050612be381612bbd565b92915050565b60008060408385031215612c0057612bff6129b2565b5b600083013567ffffffffffffffff811115612c1e57612c1d6129b7565b5b612c2a85828601612b8f565b9250506020612c3b85828601612bd4565b9150509250929050565b612c4e816128ea565b82525050565b6000602082019050612c696000830184612c45565b92915050565b600081519050919050565b600082825260208201905092915050565b60005b83811015612ca9578082015181840152602081019050612c8e565b60008484015250505050565b6000612cc082612c6f565b612cca8185612c7a565b9350612cda818560208601612c8b565b612ce381612a81565b840191505092915050565b60006020820190508181036000830152612d088184612cb5565b905092915050565b600060208284031215612d2657612d256129b2565b5b6000612d3484828501612bd4565b91505092915050565b600073ffffffffffffffffffffffffffffffffffffffff82169050919050565b6000612d6882612d3d565b9050919050565b612d7881612d5d565b82525050565b6000602082019050612d936000830184612d6f565b92915050565b612da281612d5d565b8114612dad57600080fd5b50565b600081359050612dbf81612d99565b92915050565b60008060408385031215612ddc57612ddb6129b2565b5b6000612dea85828601612db0565b9250506020612dfb85828601612bd4565b9150509250929050565b6000604082019050612e1a6000830185612c45565b612e276020830184612d6f565b9392505050565b600080600060608486031215612e4757612e466129b2565b5b6000612e5586828701612db0565b9350506020612e6686828701612db0565b9250506040612e7786828701612bd4565b9150509250925092565b600060208284031215612e9757612e966129b2565b5b6000612ea584828501612db0565b91505092915050565b60008060408385031215612ec557612ec46129b2565b5b6000612ed385828601612bd4565b9250506020612ee485828601612bd4565b9150509250929050565b612ef781612a41565b8114612f0257600080fd5b50565b600081359050612f1481612eee565b92915050565b60008060408385031215612f3157612f306129b2565b5b6000612f3f85828601612db0565b9250506020612f5085828601612f05565b9150509250929050565b600067ffffffffffffffff821115612f7557612f74612a92565b5b612f7e82612a81565b9050602081019050919050565b6000612f9e612f9984612f5a565b612af2565b905082815260208101848484011115612fba57612fb9612a7c565b5b612fc5848285612b3e565b509392505050565b600082601f830112612fe257612fe1612a77565b5b8135612ff2848260208601612f8b565b91505092915050565b60008060008060808587031215613015576130146129b2565b5b600061302387828801612db0565b945050602061303487828801612db0565b935050604061304587828801612bd4565b925050606085013567ffffffffffffffff811115613066576130656129b7565b5b61307287828801612fcd565b91505092959194509250565b60008060408385031215613095576130946129b2565b5b60006130a385828601612db0565b92505060206130b485828601612db0565b9150509250929050565b7f4e487b7100000000000000000000000000000000000000000000000000000000600052601160045260246000fd5b60006130f8826128ea565b91507fffffffffffffffffffffffffffffffffffffffffffffffffffffffffffffffff820361312a576131296130be565b5b600182019050919050565b7f4e487b7100000000000000000000000000000000000000000000000000000000600052603260045260246000fd5b7f526f79616c7479206d757374206265206265747765656e203020616e6420313060008201527f3000000000000000000000000000000000000000000000000000000000000000602082015250565b60006131c0602183612c7a565b91506131cb82613164565b604082019050919050565b600060208201905081810360008301526131ef816131b3565b9050919050565b7f4e487b7100000000000000000000000000000000000000000000000000000000600052602260045260246000fd5b6000600282049050600182168061323d57607f821691505b6020821081036132505761324f6131f6565b5b50919050565b7f4552433732313a20617070726f76616c20746f2063757272656e74206f776e6560008201527f7200000000000000000000000000000000000000000000000000000000000000602082015250565b60006132b2602183612c7a565b91506132bd82613256565b604082019050919050565b600060208201905081810360008301526132e1816132a5565b9050919050565b7f4552433732313a20617070726f76652063616c6c6572206973206e6f7420746f60008201527f6b656e206f776e6572206f7220617070726f76656420666f7220616c6c000000602082015250565b6000613344603d83612c7a565b915061334f826132e8565b604082019050919050565b6000602082019050818103600083015261337381613337565b9050919050565b7f4552433732313a2063616c6c6572206973206e6f7420746f6b656e206f776e6560008201527f72206f7220617070726f76656400000000000000000000000000000000000000602082015250565b60006133d6602d83612c7a565b91506133e18261337a565b604082019050919050565b60006020820190508181036000830152613405816133c9565b9050919050565b7f4e4654206e6f7420666f722073616c6500000000000000000000000000000000600082015250565b6000613442601083612c7a565b915061344d8261340c565b602082019050919050565b6000602082019050818103600083015261347181613435565b9050919050565b7f496e73756666696369656e74207061796d656e74000000000000000000000000600082015250565b60006134ae601483612c7a565b91506134b982613478565b602082019050919050565b600060208201905081810360008301526134dd816134a1565b9050919050565b60006134ef826128ea565b91506134fa836128ea565b9250828202613508816128ea565b9150828204841483151761351f5761351e6130be565b5b5092915050565b7f4e487b7100000000000000000000000000000000000000000000000000000000600052601260045260246000fd5b6000613560826128ea565b915061356b836128ea565b92508261357b5761357a613526565b5b828204905092915050565b6000613591826128ea565b915061359c836128ea565b92508282039050818111156135b4576135b36130be565b5b92915050565b60006080820190506135cf6000830187612c45565b6135dc6020830186612c45565b6135e96040830185612d6f565b6135f66060830184612d6f565b95945050505050565b7f4552433732313a20696e76616c696420746f6b656e2049440000000000000000600082015250565b6000613635601883612c7a565b9150613640826135ff565b602082019050919050565b6000602082019050818103600083015261366481613628565b9050919050565b7f4552433732313a2061646472657373207a65726f206973206e6f74206120766160008201527f6c6964206f776e65720000000000000000000000000000000000000000000000602082015250565b60006136c7602983612c7a565b91506136d28261366b565b604082019050919050565b600060208201905081810360008301526136f6816136ba565b9050919050565b7f4e465420646f6573206e6f742065786973740000000000000000000000000000600082015250565b6000613733601283612c7a565b915061373e826136fd565b602082019050919050565b6000602082019050818103600083015261376281613726565b9050919050565b7f4e6f7420746865206f776e657200000000000000000000000000000000000000600082015250565b600061379f600d83612c7a565b91506137aa82613769565b602082019050919050565b600060208201905081810360008301526137ce81613792565b9050919050565b7f5072696365206d7573742062652067726561746572207468616e207a65726f00600082015250565b600061380b601f83612c7a565b9150613816826137d5565b602082019050919050565b6000602082019050818103600083015261383a816137fe565b9050919050565b60006060820190506138566000830186612c45565b6138636020830185612c45565b6138706040830184612d6f565b949350505050565b7f4552433732314d657461646174613a2055524920717565727920666f72206e6f60008201527f6e6578697374656e7420746f6b656e0000000000000000000000000000000000602082015250565b60006138d4602f83612c7a565b91506138df82613878565b604082019050919050565b60006020820190508181036000830152613903816138c7565b9050919050565b7f4f776e61626c653a206e6577206f776e657220697320746865207a65726f206160008201527f6464726573730000000000000000000000000000000000000000000000000000602082015250565b6000613966602683612c7a565b91506139718261390a565b604082019050919050565b6000602082019050818103600083015261399581613959565b9050919050565b7f4552433732314d657461646174613a2055524920736574206f66206e6f6e657860008201527f697374656e7420746f6b656e0000000000000000000000000000000000000000602082015250565b60006139f8602c83612c7a565b9150613a038261399c565b604082019050919050565b60006020820190508181036000830152613a27816139eb565b9050919050565b60008190508160005260206000209050919050565b60006020601f8301049050919050565b600082821b905092915050565b600060088302613a907fffffffffffffffffffffffffffffffffffffffffffffffffffffffffffffffff82613a53565b613a9a8683613a53565b95508019841693508086168417925050509392505050565b6000819050919050565b6000613ad7613ad2613acd846128ea565b613ab2565b6128ea565b9050919050565b6000819050919050565b613af183613abc565b613b05613afd82613ade565b848454613a60565b825550505050565b600090565b613b1a613b0d565b613b25818484613ae8565b505050565b5b81811015613b4957613b3e600082613b12565b600181019050613b2b565b5050565b601f821115613b8e57613b5f81613a2e565b613b6884613a43565b81016020851015613b77578190505b613b8b613b8385613a43565b830182613b2a565b50505b505050565b600082821c905092915050565b6000613bb160001984600802613b93565b1980831691505092915050565b6000613bca8383613ba0565b9150826002028217905092915050565b613be382612c6f565b67ffffffffffffffff811115613bfc57613bfb612a92565b5b613c068254613225565b613c11828285613b4d565b600060209050601f831160018114613c445760008415613c32578287015190505b613c3c8582613bbe565b865550613ca4565b601f198416613c5286613a2e565b60005b82811015613c7a57848901518255600182019150602085019450602081019050613c55565b86831015613c975784890151613c93601f891682613ba0565b8355505b6001600288020188555050505b505050505050565b7f4552433732313a207472616e736665722066726f6d20696e636f72726563742060008201527f6f776e6572000000000000000000000000000000000000000000000000000000602082015250565b6000613d08602583612c7a565b9150613d1382613cac565b604082019050919050565b60006020820190508181036000830152613d3781613cfb565b9050919050565b7f4552433732313a207472616e7366657220746f20746865207a65726f2061646460008201527f7265737300000000000000000000000000000000000000000000000000000000602082015250565b6000613d9a602483612c7a565b9150613da582613d3e565b604082019050919050565b60006020820190508181036000830152613dc981613d8d565b9050919050565b7f4e487b7100000000000000000000000000000000000000000000000000000000600052603160045260246000fd5b7f4f776e61626c653a2063616c6c6572206973206e6f7420746865206f776e6572600082015250565b6000613e35602083612c7a565b9150613e4082613dff565b602082019050919050565b60006020820190508181036000830152613e6481613e28565b9050919050565b7f4552433732313a20617070726f766520746f2063616c6c657200000000000000600082015250565b6000613ea1601983612c7a565b9150613eac82613e6b565b602082019050919050565b60006020820190508181036000830152613ed081613e94565b9050919050565b7f4552433732313a207472616e7366657220746f206e6f6e20455243373231526560008201527f63656976657220696d706c656d656e7465720000000000000000000000000000602082015250565b6000613f33603283612c7a565b9150613f3e82613ed7565b604082019050919050565b60006020820190508181036000830152613f6281613f26565b9050919050565b600081519050919050565b600082825260208201905092915050565b6000613f9082613f69565b613f9a8185613f74565b9350613faa818560208601612c8b565b613fb381612a81565b840191505092915050565b6000608082019050613fd36000830187612d6f565b613fe06020830186612d6f565b613fed6040830185612c45565b8181036060830152613fff8184613f85565b905095945050505050565b600081519050614019816129e8565b92915050565b600060208284031215614035576140346129b2565b5b60006140438482850161400a565b91505092915050565b7f4552433732313a206d696e7420746f20746865207a65726f2061646472657373600082015250565b6000614082602083612c7a565b915061408d8261404c565b602082019050919050565b600060208201905081810360008301526140b181614075565b9050919050565b7f4552433732313a20746f6b656e20616c7265616479206d696e74656400000000600082015250565b60006140ee601c83612c7a565b91506140f9826140b8565b602082019050919050565b6000602082019050818103600083015261411d816140e1565b905091905056fea2646970667358221220ee9e8c611260fedd222f3a794ced10247e756d3f8175ff638efd06d283602be164736f6c634300081b0033",
  "linkReferences": {},
  "deployedLinkReferences": {}
}